{
  "contractName": "DEX",
  "abi": [
    {
      "inputs": [],
      "stateMutability": "nonpayable",
      "type": "constructor"
    },
    {
      "anonymous": false,
      "inputs": [
        {
          "indexed": true,
          "internalType": "uint256",
          "name": "tradeId",
          "type": "uint256"
        },
        {
          "indexed": false,
          "internalType": "uint256",
          "name": "orderId",
          "type": "uint256"
        },
        {
          "indexed": false,
          "internalType": "bytes32",
          "name": "tokenSymbol",
          "type": "bytes32"
        },
        {
          "indexed": false,
          "internalType": "enum DEX.OrderType",
          "name": "_orderType",
          "type": "uint8"
        },
        {
          "indexed": true,
          "internalType": "address",
          "name": "userInitiator",
          "type": "address"
        },
        {
          "indexed": true,
          "internalType": "address",
          "name": "userFill",
          "type": "address"
        },
        {
          "indexed": false,
          "internalType": "uint256",
          "name": "tokenAmount",
          "type": "uint256"
        },
        {
          "indexed": false,
          "internalType": "uint256",
          "name": "pricePerToken",
          "type": "uint256"
        },
        {
          "indexed": false,
          "internalType": "uint256",
          "name": "totalCost",
          "type": "uint256"
        },
        {
          "indexed": false,
          "internalType": "uint256",
          "name": "timestamp",
          "type": "uint256"
        }
      ],
      "name": "Trade",
      "type": "event"
    },
    {
      "inputs": [],
      "name": "admin",
      "outputs": [
        {
          "internalType": "address",
          "name": "",
          "type": "address"
        }
      ],
      "stateMutability": "view",
      "type": "function",
      "constant": true
    },
    {
      "inputs": [],
      "name": "nextTradeId",
      "outputs": [
        {
          "internalType": "uint256",
          "name": "",
          "type": "uint256"
        }
      ],
      "stateMutability": "view",
      "type": "function",
      "constant": true
    },
    {
      "inputs": [
        {
          "internalType": "bytes32",
          "name": "",
          "type": "bytes32"
        },
        {
          "internalType": "enum DEX.OrderType",
          "name": "",
          "type": "uint8"
        },
        {
          "internalType": "uint256",
          "name": "",
          "type": "uint256"
        }
      ],
      "name": "orderBook",
      "outputs": [
        {
          "internalType": "uint256",
          "name": "orderId",
          "type": "uint256"
        },
        {
          "internalType": "enum DEX.OrderType",
          "name": "orderType",
          "type": "uint8"
        },
        {
          "internalType": "address",
          "name": "trader",
          "type": "address"
        },
        {
          "internalType": "bytes32",
          "name": "symbol",
          "type": "bytes32"
        },
        {
          "internalType": "uint256",
          "name": "amount",
          "type": "uint256"
        },
        {
          "internalType": "uint256",
          "name": "filled",
          "type": "uint256"
        },
        {
          "internalType": "uint256",
          "name": "price",
          "type": "uint256"
        },
        {
          "internalType": "uint256",
          "name": "date",
          "type": "uint256"
        }
      ],
      "stateMutability": "view",
      "type": "function",
      "constant": true
    },
    {
      "inputs": [
        {
          "internalType": "address",
          "name": "",
          "type": "address"
        },
        {
          "internalType": "bytes32",
          "name": "",
          "type": "bytes32"
        }
      ],
      "name": "tokenBalances",
      "outputs": [
        {
          "internalType": "uint256",
          "name": "",
          "type": "uint256"
        }
      ],
      "stateMutability": "view",
      "type": "function",
      "constant": true
    },
    {
      "inputs": [
        {
          "internalType": "uint256",
          "name": "",
          "type": "uint256"
        }
      ],
      "name": "tokenList",
      "outputs": [
        {
          "internalType": "bytes32",
          "name": "",
          "type": "bytes32"
        }
      ],
      "stateMutability": "view",
      "type": "function",
      "constant": true
    },
    {
      "inputs": [
        {
          "internalType": "bytes32",
          "name": "_symbol",
          "type": "bytes32"
        },
        {
          "internalType": "address",
          "name": "_tokenAddress",
          "type": "address"
        }
      ],
      "name": "addToken",
      "outputs": [],
      "stateMutability": "nonpayable",
      "type": "function"
    },
    {
      "inputs": [
        {
          "internalType": "bytes32",
          "name": "_symbol",
          "type": "bytes32"
        },
        {
          "internalType": "uint256",
          "name": "_amount",
          "type": "uint256"
        }
      ],
      "name": "deposit",
      "outputs": [],
      "stateMutability": "nonpayable",
      "type": "function"
    },
    {
      "inputs": [
        {
          "internalType": "bytes32",
          "name": "_symbol",
          "type": "bytes32"
        },
        {
          "internalType": "uint256",
          "name": "_amount",
          "type": "uint256"
        }
      ],
      "name": "withdraw",
      "outputs": [],
      "stateMutability": "nonpayable",
      "type": "function"
    },
    {
      "inputs": [
        {
          "internalType": "bytes32",
          "name": "_symbol",
          "type": "bytes32"
        },
        {
          "internalType": "uint256",
          "name": "_amount",
          "type": "uint256"
        },
        {
          "internalType": "uint256",
          "name": "_price",
          "type": "uint256"
        },
        {
          "internalType": "enum DEX.OrderType",
          "name": "_orderType",
          "type": "uint8"
        }
      ],
      "name": "createLimitOrder",
      "outputs": [],
      "stateMutability": "nonpayable",
      "type": "function"
    },
    {
      "inputs": [
        {
          "internalType": "bytes32",
          "name": "_symbol",
          "type": "bytes32"
        },
        {
          "internalType": "uint256",
          "name": "_amount",
          "type": "uint256"
        },
        {
          "internalType": "enum DEX.OrderType",
          "name": "_orderType",
          "type": "uint8"
        }
      ],
      "name": "createMarketOrder",
      "outputs": [],
      "stateMutability": "nonpayable",
      "type": "function"
    },
    {
      "inputs": [
        {
          "internalType": "bytes32",
          "name": "_symbol",
          "type": "bytes32"
        },
        {
          "internalType": "enum DEX.OrderType",
          "name": "_orderType",
          "type": "uint8"
        }
      ],
      "name": "getOrders",
      "outputs": [
        {
          "components": [
            {
              "internalType": "uint256",
              "name": "orderId",
              "type": "uint256"
            },
            {
              "internalType": "enum DEX.OrderType",
              "name": "orderType",
              "type": "uint8"
            },
            {
              "internalType": "address",
              "name": "trader",
              "type": "address"
            },
            {
              "internalType": "bytes32",
              "name": "symbol",
              "type": "bytes32"
            },
            {
              "internalType": "uint256",
              "name": "amount",
              "type": "uint256"
            },
            {
              "internalType": "uint256",
              "name": "filled",
              "type": "uint256"
            },
            {
              "internalType": "uint256",
              "name": "price",
              "type": "uint256"
            },
            {
              "internalType": "uint256",
              "name": "date",
              "type": "uint256"
            }
          ],
          "internalType": "struct DEX.Order[]",
          "name": "",
          "type": "tuple[]"
        }
      ],
      "stateMutability": "view",
      "type": "function",
      "constant": true
    },
    {
      "inputs": [],
      "name": "getTokens",
      "outputs": [
        {
          "components": [
            {
              "internalType": "bytes32",
              "name": "symbol",
              "type": "bytes32"
            },
            {
              "internalType": "address",
              "name": "tokenAddress",
              "type": "address"
            }
          ],
          "internalType": "struct DEX.Token[]",
          "name": "",
          "type": "tuple[]"
        }
      ],
      "stateMutability": "view",
      "type": "function",
      "constant": true
    }
  ],
  "bytecode": "0x608060405234801561001057600080fd5b5033600560006101000a81548173ffffffffffffffffffffffffffffffffffffffff021916908373ffffffffffffffffffffffffffffffffffffffff16021790555061394f806100616000396000f3fe608060405234801561001057600080fd5b50600436106100b45760003560e01c80639776aacf116100715780639776aacf146101925780639ead7222146101ae578063aa6ca808146101de578063d520d23c146101fc578063d9c0c9501461022c578063f851a44014610248576100b4565b8063040cf020146100b95780631de26e16146100d557806346e9658b146100f15780637f2c624614610121578063813ad0831461013d5780638c29bec01461015b575b600080fd5b6100d360048036038101906100ce9190612951565b610266565b005b6100ef60048036038101906100ea9190612951565b61050f565b005b61010b600480360381019061010691906129b6565b610727565b6040516101189190612c1e565b60405180910390f35b61013b60048036038101906101369190612c40565b61089d565b005b610145611b3d565b6040516101529190612ca2565b60405180910390f35b61017560048036038101906101709190612cbd565b611b43565b604051610189989796959493929190612d3d565b60405180910390f35b6101ac60048036038101906101a79190612de7565b611be2565b005b6101c860048036038101906101c39190612e27565b611d30565b6040516101d59190612e54565b60405180910390f35b6101e6611d54565b6040516101f39190612f4d565b60405180910390f35b61021660048036038101906102119190612f6f565b611ead565b6040516102239190612ca2565b60405180910390f35b61024660048036038101906102419190612faf565b611ed2565b005b610250612845565b60405161025d9190613016565b60405180910390f35b81600073ffffffffffffffffffffffffffffffffffffffff1660008083815260200190815260200160002060010160009054906101000a900473ffffffffffffffffffffffffffffffffffffffff1673ffffffffffffffffffffffffffffffffffffffff16141561030c576040517f08c379a0000000000000000000000000000000000000000000000000000000008152600401610303906130b4565b60405180910390fd5b600260003373ffffffffffffffffffffffffffffffffffffffff1673ffffffffffffffffffffffffffffffffffffffff16815260200190815260200160002060008481526020019081526020016000205482111561039f576040517f08c379a000000000000000000000000000000000000000000000000000000000815260040161039690613192565b60405180910390fd5b61040282600260003373ffffffffffffffffffffffffffffffffffffffff1673ffffffffffffffffffffffffffffffffffffffff16815260200190815260200160002060008681526020019081526020016000205461286b90919063ffffffff16565b600260003373ffffffffffffffffffffffffffffffffffffffff1673ffffffffffffffffffffffffffffffffffffffff16815260200190815260200160002060008581526020019081526020016000208190555060008084815260200190815260200160002060010160009054906101000a900473ffffffffffffffffffffffffffffffffffffffff1673ffffffffffffffffffffffffffffffffffffffff1663a9059cbb33846040518363ffffffff1660e01b81526004016104c69291906131b2565b6020604051808303816000875af11580156104e5573d6000803e3d6000fd5b505050506040513d601f19601f820116820180604052508101906105099190613213565b50505050565b81600073ffffffffffffffffffffffffffffffffffffffff1660008083815260200190815260200160002060010160009054906101000a900473ffffffffffffffffffffffffffffffffffffffff1673ffffffffffffffffffffffffffffffffffffffff1614156105b5576040517f08c379a00000000000000000000000000000000000000000000000000000000081526004016105ac906130b4565b60405180910390fd5b60008084815260200190815260200160002060010160009054906101000a900473ffffffffffffffffffffffffffffffffffffffff1673ffffffffffffffffffffffffffffffffffffffff166323b872dd3330856040518463ffffffff1660e01b815260040161062793929190613240565b6020604051808303816000875af1158015610646573d6000803e3d6000fd5b505050506040513d601f19601f8201168201806040525081019061066a9190613213565b506106ce82600260003373ffffffffffffffffffffffffffffffffffffffff1673ffffffffffffffffffffffffffffffffffffffff16815260200190815260200160002060008681526020019081526020016000205461288190919063ffffffff16565b600260003373ffffffffffffffffffffffffffffffffffffffff1673ffffffffffffffffffffffffffffffffffffffff168152602001908152602001600020600085815260200190815260200160002081905550505050565b606060036000848152602001908152602001600020600083600181111561075157610750612a31565b5b600181111561076357610762612a31565b5b8152602001908152602001600020805480602002602001604051908101604052809291908181526020016000905b82821015610891578382906000526020600020906007020160405180610100016040529081600082015481526020016001820160009054906101000a900460ff1660018111156107e4576107e3612a31565b5b60018111156107f6576107f5612a31565b5b81526020016001820160019054906101000a900473ffffffffffffffffffffffffffffffffffffffff1673ffffffffffffffffffffffffffffffffffffffff1673ffffffffffffffffffffffffffffffffffffffff1681526020016002820154815260200160038201548152602001600482015481526020016005820154815260200160068201548152505081526020019060010190610791565b50505050905092915050565b81600081116108e1576040517f08c379a00000000000000000000000000000000000000000000000000000000081526004016108d8906132e9565b60405180910390fd5b83600073ffffffffffffffffffffffffffffffffffffffff1660008083815260200190815260200160002060010160009054906101000a900473ffffffffffffffffffffffffffffffffffffffff1673ffffffffffffffffffffffffffffffffffffffff161415610987576040517f08c379a000000000000000000000000000000000000000000000000000000000815260040161097e906130b4565b60405180910390fd5b847f44414900000000000000000000000000000000000000000000000000000000008114156109eb576040517f08c379a00000000000000000000000000000000000000000000000000000000081526004016109e29061337b565b60405180910390fd5b6001808111156109fe576109fd612a31565b5b846001811115610a1157610a10612a31565b5b1415610aab57600260003373ffffffffffffffffffffffffffffffffffffffff1673ffffffffffffffffffffffffffffffffffffffff168152602001908152602001600020600087815260200190815260200160002054851115610aaa576040517f08c379a0000000000000000000000000000000000000000000000000000000008152600401610aa19061340d565b60405180910390fd5b5b6000600360008881526020019081526020016000206000600180811115610ad557610ad4612a31565b5b876001811115610ae857610ae7612a31565b5b14610af4576001610af7565b60005b6001811115610b0957610b08612a31565b5b6001811115610b1b57610b1a612a31565b5b81526020019081526020016000209050600086905060005b828054905081108015610b465750600082115b156118b9576000838281548110610b6057610b5f61342d565b5b906000526020600020906007020160040154848381548110610b8557610b8461342d565b5b906000526020600020906007020160030154610ba1919061348b565b90506000818411610bb25783610bb4565b815b9050610bc9818561286b90919063ffffffff16565b9350610c0281868581548110610be257610be161342d565b5b90600052602060002090600702016004015461288190919063ffffffff16565b858481548110610c1557610c1461342d565b5b906000526020600020906007020160040181905550848381548110610c3d57610c3c61342d565b5b906000526020600020906007020160010160019054906101000a900473ffffffffffffffffffffffffffffffffffffffff1673ffffffffffffffffffffffffffffffffffffffff163373ffffffffffffffffffffffffffffffffffffffff166006547f67b5a1cffc6f430758db4127f49534d3aaf2c08b9ac9a53e3e291243806962e2888781548110610cd357610cd261342d565b5b906000526020600020906007020160000154898881548110610cf857610cf761342d565b5b9060005260206000209060070201600201548a8981548110610d1d57610d1c61342d565b5b906000526020600020906007020160010160009054906101000a900460ff16878c8b81548110610d5057610d4f61342d565b5b906000526020600020906007020160050154610d998a8f8e81548110610d7957610d7861342d565b5b90600052602060002090600702016005015461289790919063ffffffff16565b42604051610dad97969594939291906134bf565b60405180910390a4600180811115610dc857610dc7612a31565b5b896001811115610ddb57610dda612a31565b5b14156112be57610e4481600260003373ffffffffffffffffffffffffffffffffffffffff1673ffffffffffffffffffffffffffffffffffffffff16815260200190815260200160002060008e81526020019081526020016000205461286b90919063ffffffff16565b600260003373ffffffffffffffffffffffffffffffffffffffff1673ffffffffffffffffffffffffffffffffffffffff16815260200190815260200160002060008d815260200190815260200160002081905550610f51610ed2868581548110610eb157610eb061342d565b5b9060005260206000209060070201600501548361289790919063ffffffff16565b600260003373ffffffffffffffffffffffffffffffffffffffff1673ffffffffffffffffffffffffffffffffffffffff16815260200190815260200160002060007f444149000000000000000000000000000000000000000000000000000000000081526020019081526020016000205461288190919063ffffffff16565b600260003373ffffffffffffffffffffffffffffffffffffffff1673ffffffffffffffffffffffffffffffffffffffff16815260200190815260200160002060007f444149000000000000000000000000000000000000000000000000000000000081526020019081526020016000208190555061106c8160026000888781548110610fe057610fdf61342d565b5b906000526020600020906007020160010160019054906101000a900473ffffffffffffffffffffffffffffffffffffffff1673ffffffffffffffffffffffffffffffffffffffff1673ffffffffffffffffffffffffffffffffffffffff16815260200190815260200160002060008e81526020019081526020016000205461288190919063ffffffff16565b600260008786815481106110835761108261342d565b5b906000526020600020906007020160010160019054906101000a900473ffffffffffffffffffffffffffffffffffffffff1673ffffffffffffffffffffffffffffffffffffffff1673ffffffffffffffffffffffffffffffffffffffff16815260200190815260200160002060008d81526020019081526020016000208190555061120161113e86858154811061111d5761111c61342d565b5b9060005260206000209060070201600501548361289790919063ffffffff16565b600260008887815481106111555761115461342d565b5b906000526020600020906007020160010160019054906101000a900473ffffffffffffffffffffffffffffffffffffffff1673ffffffffffffffffffffffffffffffffffffffff1673ffffffffffffffffffffffffffffffffffffffff16815260200190815260200160002060007f444149000000000000000000000000000000000000000000000000000000000081526020019081526020016000205461286b90919063ffffffff16565b600260008786815481106112185761121761342d565b5b906000526020600020906007020160010160019054906101000a900473ffffffffffffffffffffffffffffffffffffffff1673ffffffffffffffffffffffffffffffffffffffff1673ffffffffffffffffffffffffffffffffffffffff16815260200190815260200160002060007f4441490000000000000000000000000000000000000000000000000000000000815260200190815260200160002081905550611880565b6112f58584815481106112d4576112d361342d565b5b9060005260206000209060070201600501548b61289790919063ffffffff16565b600260003373ffffffffffffffffffffffffffffffffffffffff1673ffffffffffffffffffffffffffffffffffffffff16815260200190815260200160002060007f444149000000000000000000000000000000000000000000000000000000000081526020019081526020016000205410156113a7576040517f08c379a000000000000000000000000000000000000000000000000000000000815260040161139e906135c6565b60405180910390fd5b61140a81600260003373ffffffffffffffffffffffffffffffffffffffff1673ffffffffffffffffffffffffffffffffffffffff16815260200190815260200160002060008e81526020019081526020016000205461288190919063ffffffff16565b600260003373ffffffffffffffffffffffffffffffffffffffff1673ffffffffffffffffffffffffffffffffffffffff16815260200190815260200160002060008d8152602001908152602001600020819055506115176114988685815481106114775761147661342d565b5b9060005260206000209060070201600501548361289790919063ffffffff16565b600260003373ffffffffffffffffffffffffffffffffffffffff1673ffffffffffffffffffffffffffffffffffffffff16815260200190815260200160002060007f444149000000000000000000000000000000000000000000000000000000000081526020019081526020016000205461286b90919063ffffffff16565b600260003373ffffffffffffffffffffffffffffffffffffffff1673ffffffffffffffffffffffffffffffffffffffff16815260200190815260200160002060007f444149000000000000000000000000000000000000000000000000000000000081526020019081526020016000208190555061163281600260008887815481106115a6576115a561342d565b5b906000526020600020906007020160010160019054906101000a900473ffffffffffffffffffffffffffffffffffffffff1673ffffffffffffffffffffffffffffffffffffffff1673ffffffffffffffffffffffffffffffffffffffff16815260200190815260200160002060008e81526020019081526020016000205461286b90919063ffffffff16565b600260008786815481106116495761164861342d565b5b906000526020600020906007020160010160019054906101000a900473ffffffffffffffffffffffffffffffffffffffff1673ffffffffffffffffffffffffffffffffffffffff1673ffffffffffffffffffffffffffffffffffffffff16815260200190815260200160002060008d8152602001908152602001600020819055506117c76117048685815481106116e3576116e261342d565b5b9060005260206000209060070201600501548361289790919063ffffffff16565b6002600088878154811061171b5761171a61342d565b5b906000526020600020906007020160010160019054906101000a900473ffffffffffffffffffffffffffffffffffffffff1673ffffffffffffffffffffffffffffffffffffffff1673ffffffffffffffffffffffffffffffffffffffff16815260200190815260200160002060007f444149000000000000000000000000000000000000000000000000000000000081526020019081526020016000205461288190919063ffffffff16565b600260008786815481106117de576117dd61342d565b5b906000526020600020906007020160010160019054906101000a900473ffffffffffffffffffffffffffffffffffffffff1673ffffffffffffffffffffffffffffffffffffffff1673ffffffffffffffffffffffffffffffffffffffff16815260200190815260200160002060007f44414900000000000000000000000000000000000000000000000000000000008152602001908152602001600020819055505b611896600160065461288190919063ffffffff16565b6006819055506118b060018461288190919063ffffffff16565b92505050610b33565b600090505b8280549050811015611b32578281815481106118dd576118dc61342d565b5b9060005260206000209060070201600401548382815481106119025761190161342d565b5b9060005260206000209060070201600301541415611b175760008190505b60018480549050611931919061348b565b811015611a7c578360018261194691906135e6565b815481106119575761195661342d565b5b90600052602060002090600702018482815481106119785761197761342d565b5b9060005260206000209060070201600082015481600001556001820160009054906101000a900460ff168160010160006101000a81548160ff021916908360018111156119c8576119c7612a31565b5b02179055506001820160019054906101000a900473ffffffffffffffffffffffffffffffffffffffff168160010160016101000a81548173ffffffffffffffffffffffffffffffffffffffff021916908373ffffffffffffffffffffffffffffffffffffffff16021790555060028201548160020155600382015481600301556004820154816004015560058201548160050155600682015481600601559050508080611a749061363c565b915050611920565b5082805480611a8e57611a8d613685565b5b60019003818190600052602060002090600702016000808201600090556001820160006101000a81549060ff02191690556001820160016101000a81549073ffffffffffffffffffffffffffffffffffffffff021916905560028201600090556003820160009055600482016000905560058201600090556006820160009055505090556118be565b611b2b60018261288190919063ffffffff16565b90506118be565b505050505050505050565b60065481565b60036020528260005260406000206020528160005260406000208181548110611b6b57600080fd5b906000526020600020906007020160009250925050508060000154908060010160009054906101000a900460ff16908060010160019054906101000a900473ffffffffffffffffffffffffffffffffffffffff16908060020154908060030154908060040154908060050154908060060154905088565b3373ffffffffffffffffffffffffffffffffffffffff16600560009054906101000a900473ffffffffffffffffffffffffffffffffffffffff1673ffffffffffffffffffffffffffffffffffffffff1614611c72576040517f08c379a0000000000000000000000000000000000000000000000000000000008152600401611c6990613726565b60405180910390fd5b60405180604001604052808381526020018273ffffffffffffffffffffffffffffffffffffffff168152506000808481526020019081526020016000206000820151816000015560208201518160010160006101000a81548173ffffffffffffffffffffffffffffffffffffffff021916908373ffffffffffffffffffffffffffffffffffffffff16021790555090505060018290806001815401808255809150506001900390600052602060002001600090919091909150555050565b60018181548110611d4057600080fd5b906000526020600020016000915090505481565b6060600060018054905067ffffffffffffffff811115611d7757611d76613746565b5b604051908082528060200260200182016040528015611db057816020015b611d9d6128ad565b815260200190600190039081611d955790505b50905060005b600180549050811015611ea557604051806040016040528060008060018581548110611de557611de461342d565b5b9060005260206000200154815260200190815260200160002060000154815260200160008060018581548110611e1e57611e1d61342d565b5b9060005260206000200154815260200190815260200160002060010160009054906101000a900473ffffffffffffffffffffffffffffffffffffffff1673ffffffffffffffffffffffffffffffffffffffff16815250828281518110611e8757611e8661342d565b5b60200260200101819052508080611e9d9061363c565b915050611db6565b508091505090565b6002602052816000526040600020602052806000526040600020600091509150505481565b8260008111611f16576040517f08c379a0000000000000000000000000000000000000000000000000000000008152600401611f0d906132e9565b60405180910390fd5b84600073ffffffffffffffffffffffffffffffffffffffff1660008083815260200190815260200160002060010160009054906101000a900473ffffffffffffffffffffffffffffffffffffffff1673ffffffffffffffffffffffffffffffffffffffff161415611fbc576040517f08c379a0000000000000000000000000000000000000000000000000000000008152600401611fb3906130b4565b60405180910390fd5b857f4441490000000000000000000000000000000000000000000000000000000000811415612020576040517f08c379a00000000000000000000000000000000000000000000000000000000081526004016120179061337b565b60405180910390fd5b60018081111561203357612032612a31565b5b84600181111561204657612045612a31565b5b14156120e45785600260003373ffffffffffffffffffffffffffffffffffffffff1673ffffffffffffffffffffffffffffffffffffffff16815260200190815260200160002060008981526020019081526020016000205410156120df576040517f08c379a00000000000000000000000000000000000000000000000000000000081526004016120d6906137e7565b60405180910390fd5b6121aa565b6120f7858761289790919063ffffffff16565b600260003373ffffffffffffffffffffffffffffffffffffffff1673ffffffffffffffffffffffffffffffffffffffff16815260200190815260200160002060007f444149000000000000000000000000000000000000000000000000000000000081526020019081526020016000205410156121a9576040517f08c379a00000000000000000000000000000000000000000000000000000000081526004016121a09061389f565b60405180910390fd5b5b60006003600089815260200190815260200160002060008660018111156121d4576121d3612a31565b5b60018111156121e6576121e5612a31565b5b8152602001908152602001600020905080604051806101000160405280600454815260200187600181111561221e5761221d612a31565b5b81526020013373ffffffffffffffffffffffffffffffffffffffff1681526020018a8152602001898152602001600081526020018881526020014281525090806001815401808255809150506001900390600052602060002090600702016000909190919091506000820151816000015560208201518160010160006101000a81548160ff021916908360018111156122ba576122b9612a31565b5b021790555060408201518160010160016101000a81548173ffffffffffffffffffffffffffffffffffffffff021916908373ffffffffffffffffffffffffffffffffffffffff160217905550606082015181600201556080820151816003015560a0820151816004015560c0820151816005015560e08201518160060155505060008082805490501161234e576000612360565b6001828054905061235f919061348b565b5b90505b600081111561281e57600060018111156123805761237f612a31565b5b8282815481106123935761239261342d565b5b906000526020600020906007020160010160009054906101000a900460ff1660018111156123c4576123c3612a31565b5b14801561242457508181815481106123df576123de61342d565b5b906000526020600020906007020160050154826001836123ff919061348b565b815481106124105761240f61342d565b5b906000526020600020906007020160050154115b1561242e5761281e565b60018081111561244157612440612a31565b5b8282815481106124545761245361342d565b5b906000526020600020906007020160010160009054906101000a900460ff16600181111561248557612484612a31565b5b1480156124e557508181815481106124a05761249f61342d565b5b906000526020600020906007020160050154826001836124c0919061348b565b815481106124d1576124d061342d565b5b906000526020600020906007020160050154105b156124ef5761281e565b6000826001836124ff919061348b565b815481106125105761250f61342d565b5b906000526020600020906007020160405180610100016040529081600082015481526020016001820160009054906101000a900460ff16600181111561255957612558612a31565b5b600181111561256b5761256a612a31565b5b81526020016001820160019054906101000a900473ffffffffffffffffffffffffffffffffffffffff1673ffffffffffffffffffffffffffffffffffffffff1673ffffffffffffffffffffffffffffffffffffffff16815260200160028201548152602001600382015481526020016004820154815260200160058201548152602001600682015481525050905082828154811061260c5761260b61342d565b5b906000526020600020906007020183600184612628919061348b565b815481106126395761263861342d565b5b9060005260206000209060070201600082015481600001556001820160009054906101000a900460ff168160010160006101000a81548160ff0219169083600181111561268957612688612a31565b5b02179055506001820160019054906101000a900473ffffffffffffffffffffffffffffffffffffffff168160010160016101000a81548173ffffffffffffffffffffffffffffffffffffffff021916908373ffffffffffffffffffffffffffffffffffffffff16021790555060028201548160020155600382015481600301556004820154816004015560058201548160050155600682015481600601559050508083838154811061273e5761273d61342d565b5b90600052602060002090600702016000820151816000015560208201518160010160006101000a81548160ff0219169083600181111561278157612780612a31565b5b021790555060408201518160010160016101000a81548173ffffffffffffffffffffffffffffffffffffffff021916908373ffffffffffffffffffffffffffffffffffffffff160217905550606082015181600201556080820151816003015560a0820151816004015560c0820151816005015560e0820151816006015590505061281660018361286b90919063ffffffff16565b915050612363565b612834600160045461288190919063ffffffff16565b600481905550505050505050505050565b600560009054906101000a900473ffffffffffffffffffffffffffffffffffffffff1681565b60008183612879919061348b565b905092915050565b6000818361288f91906135e6565b905092915050565b600081836128a591906138bf565b905092915050565b604051806040016040528060008019168152602001600073ffffffffffffffffffffffffffffffffffffffff1681525090565b600080fd5b6000819050919050565b6128f8816128e5565b811461290357600080fd5b50565b600081359050612915816128ef565b92915050565b6000819050919050565b61292e8161291b565b811461293957600080fd5b50565b60008135905061294b81612925565b92915050565b60008060408385031215612968576129676128e0565b5b600061297685828601612906565b92505060206129878582860161293c565b9150509250929050565b6002811061299e57600080fd5b50565b6000813590506129b081612991565b92915050565b600080604083850312156129cd576129cc6128e0565b5b60006129db85828601612906565b92505060206129ec858286016129a1565b9150509250929050565b600081519050919050565b600082825260208201905092915050565b6000819050602082019050919050565b612a2b8161291b565b82525050565b7f4e487b7100000000000000000000000000000000000000000000000000000000600052602160045260246000fd5b60028110612a7157612a70612a31565b5b50565b6000819050612a8282612a60565b919050565b6000612a9282612a74565b9050919050565b612aa281612a87565b82525050565b600073ffffffffffffffffffffffffffffffffffffffff82169050919050565b6000612ad382612aa8565b9050919050565b612ae381612ac8565b82525050565b612af2816128e5565b82525050565b61010082016000820151612b0f6000850182612a22565b506020820151612b226020850182612a99565b506040820151612b356040850182612ada565b506060820151612b486060850182612ae9565b506080820151612b5b6080850182612a22565b5060a0820151612b6e60a0850182612a22565b5060c0820151612b8160c0850182612a22565b5060e0820151612b9460e0850182612a22565b50505050565b6000612ba68383612af8565b6101008301905092915050565b6000602082019050919050565b6000612bcb826129f6565b612bd58185612a01565b9350612be083612a12565b8060005b83811015612c11578151612bf88882612b9a565b9750612c0383612bb3565b925050600181019050612be4565b5085935050505092915050565b60006020820190508181036000830152612c388184612bc0565b905092915050565b600080600060608486031215612c5957612c586128e0565b5b6000612c6786828701612906565b9350506020612c788682870161293c565b9250506040612c89868287016129a1565b9150509250925092565b612c9c8161291b565b82525050565b6000602082019050612cb76000830184612c93565b92915050565b600080600060608486031215612cd657612cd56128e0565b5b6000612ce486828701612906565b9350506020612cf5868287016129a1565b9250506040612d068682870161293c565b9150509250925092565b612d1981612a87565b82525050565b612d2881612ac8565b82525050565b612d37816128e5565b82525050565b600061010082019050612d53600083018b612c93565b612d60602083018a612d10565b612d6d6040830189612d1f565b612d7a6060830188612d2e565b612d876080830187612c93565b612d9460a0830186612c93565b612da160c0830185612c93565b612dae60e0830184612c93565b9998505050505050505050565b612dc481612ac8565b8114612dcf57600080fd5b50565b600081359050612de181612dbb565b92915050565b60008060408385031215612dfe57612dfd6128e0565b5b6000612e0c85828601612906565b9250506020612e1d85828601612dd2565b9150509250929050565b600060208284031215612e3d57612e3c6128e0565b5b6000612e4b8482850161293c565b91505092915050565b6000602082019050612e696000830184612d2e565b92915050565b600081519050919050565b600082825260208201905092915050565b6000819050602082019050919050565b604082016000820151612eb16000850182612ae9565b506020820151612ec46020850182612ada565b50505050565b6000612ed68383612e9b565b60408301905092915050565b6000602082019050919050565b6000612efa82612e6f565b612f048185612e7a565b9350612f0f83612e8b565b8060005b83811015612f40578151612f278882612eca565b9750612f3283612ee2565b925050600181019050612f13565b5085935050505092915050565b60006020820190508181036000830152612f678184612eef565b905092915050565b60008060408385031215612f8657612f856128e0565b5b6000612f9485828601612dd2565b9250506020612fa585828601612906565b9150509250929050565b60008060008060808587031215612fc957612fc86128e0565b5b6000612fd787828801612906565b9450506020612fe88782880161293c565b9350506040612ff98782880161293c565b925050606061300a878288016129a1565b91505092959194509250565b600060208201905061302b6000830184612d1f565b92915050565b600082825260208201905092915050565b7f54686520746f6b656e206973206e6f7420616e20616c6c6f77656420746f6b6560008201527f6e2c20636f6e74616374207468652061646d696e7369747261746f7200000000602082015250565b600061309e603c83613031565b91506130a982613042565b604082019050919050565b600060208201905081810360008301526130cd81613091565b9050919050565b7f4e6f7420656e6f7567682062616c616e63652c20636865636b2074686174207960008201527f6f75206861766520656e6f7567682062616c616e6365206f662074686520746f60208201527f6b656e207468617420796f752061726520747279696e6720746f20776974686460408201527f7261770000000000000000000000000000000000000000000000000000000000606082015250565b600061317c606383613031565b9150613187826130d4565b608082019050919050565b600060208201905081810360008301526131ab8161316f565b9050919050565b60006040820190506131c76000830185612d1f565b6131d46020830184612c93565b9392505050565b60008115159050919050565b6131f0816131db565b81146131fb57600080fd5b50565b60008151905061320d816131e7565b92915050565b600060208284031215613229576132286128e0565b5b6000613237848285016131fe565b91505092915050565b60006060820190506132556000830186612d1f565b6132626020830185612d1f565b61326f6040830184612c93565b949350505050565b7f546865206e756d626572206f6620746f6b656e7320746f207472616465206d7560008201527f73742062652067726561746572207468616e2030000000000000000000000000602082015250565b60006132d3603483613031565b91506132de82613277565b604082019050919050565b60006020820190508181036000830152613302816132c6565b9050919050565b7f44414920546f6b656e2063616e2774206265207472616465642c20726576657260008201527f74696e67206f7065726174696f6e000000000000000000000000000000000000602082015250565b6000613365602e83613031565b915061337082613309565b604082019050919050565b6000602082019050818103600083015261339481613358565b9050919050565b7f5468657265206973206e6f7420656e6f75676820546f6b656e7320696e20796f60008201527f75722062616c616e63652c206465706f736974206d6f72650000000000000000602082015250565b60006133f7603883613031565b91506134028261339b565b604082019050919050565b60006020820190508181036000830152613426816133ea565b9050919050565b7f4e487b7100000000000000000000000000000000000000000000000000000000600052603260045260246000fd5b7f4e487b7100000000000000000000000000000000000000000000000000000000600052601160045260246000fd5b60006134968261291b565b91506134a18361291b565b9250828210156134b4576134b361345c565b5b828203905092915050565b600060e0820190506134d4600083018a612c93565b6134e16020830189612d2e565b6134ee6040830188612d10565b6134fb6060830187612c93565b6135086080830186612c93565b61351560a0830185612c93565b61352260c0830184612c93565b98975050505050505050565b7f546865207573657220646f6573206e6f74206861766520656e6f75676820444160008201527f4920746f20627579207468652072657175657374656420616d6f756e74206f6660208201527f20746f6b656e7300000000000000000000000000000000000000000000000000604082015250565b60006135b0604783613031565b91506135bb8261352e565b606082019050919050565b600060208201905081810360008301526135df816135a3565b9050919050565b60006135f18261291b565b91506135fc8361291b565b9250827fffffffffffffffffffffffffffffffffffffffffffffffffffffffffffffffff038211156136315761363061345c565b5b828201905092915050565b60006136478261291b565b91507fffffffffffffffffffffffffffffffffffffffffffffffffffffffffffffffff82141561367a5761367961345c565b5b600182019050919050565b7f4e487b7100000000000000000000000000000000000000000000000000000000600052603160045260246000fd5b7f4f6e6c79207468652061646d696e2063616e2063616c6c20746869732066756e60008201527f6374696f6e210000000000000000000000000000000000000000000000000000602082015250565b6000613710602683613031565b915061371b826136b4565b604082019050919050565b6000602082019050818103600083015261373f81613703565b9050919050565b7f4e487b7100000000000000000000000000000000000000000000000000000000600052604160045260246000fd5b7f5468657265206973206e6f7420656e6f75676820546f6b656e7320696e20746860008201527f652062616c616e636520746f2063726561746520612053454c4c204f72646572602082015250565b60006137d1604083613031565b91506137dc82613775565b604082019050919050565b60006020820190508181036000830152613800816137c4565b9050919050565b7f5468657265206973206e6f7420656e6f7567682044414920546f6b656e73206960008201527f6e207468652062616c616e636520746f20637265617465206120425559204f7260208201527f6465720000000000000000000000000000000000000000000000000000000000604082015250565b6000613889604383613031565b915061389482613807565b606082019050919050565b600060208201905081810360008301526138b88161387c565b9050919050565b60006138ca8261291b565b91506138d58361291b565b9250817fffffffffffffffffffffffffffffffffffffffffffffffffffffffffffffffff048311821515161561390e5761390d61345c565b5b82820290509291505056fea2646970667358221220f8d6e5c21cc60143bdbaff8818b1f5a4d83b66d6104be42cb52eeeb8112cd78564736f6c634300080b0033",
  "immutableReferences": {},
  "source": "// SPDX-License-Identifier: GPL-3.0-or-later\r\npragma solidity ^0.8.0;\r\n\r\nimport \"@openzeppelin/contracts/token/ERC20/IERC20.sol\";\r\nimport \"@openzeppelin/contracts/utils/math/SafeMath.sol\";\r\n\r\ncontract DEX {\r\n\r\n    using SafeMath for uint256;\r\n\r\n    struct Token {\r\n        bytes32 symbol;\r\n        address tokenAddress;\r\n    }\r\n\r\n    mapping(bytes32 => Token) tokens;   // This mapping will map the token's symbol to a Token struct instance\r\n    bytes32[] public tokenList;         // Using this tokenList will allow us to know the allowed tokens\r\n\r\n    mapping(address => mapping(bytes32 => uint)) public tokenBalances; // This nested mapping will allow us to know how many tokens of what token a user holds in the DEX's contract\r\n\r\n    enum OrderType {\r\n        BUY,\r\n        SELL\r\n    }\r\n\r\n    struct Order {\r\n        uint orderId;\r\n        OrderType orderType;\r\n        address trader;\r\n        bytes32 symbol;\r\n        uint amount;\r\n        uint filled;\r\n        uint price;\r\n        uint date;\r\n    }\r\n\r\n    mapping(bytes32 => mapping(OrderType => Order[])) public orderBook;\r\n\r\n    uint nextOrderId;\r\n    bytes32 constant DAI = bytes32(\"DAI\");\r\n\r\n    address public admin;\r\n\r\n    event Trade(\r\n        uint indexed tradeId, \r\n        uint orderId, \r\n        bytes32 tokenSymbol, \r\n        OrderType _orderType, \r\n        address indexed userInitiator, \r\n        address indexed userFill, \r\n        uint tokenAmount, \r\n        uint pricePerToken, \r\n        uint totalCost, \r\n        uint timestamp\r\n    );\r\n\r\n    uint public nextTradeId;\r\n\r\n    constructor() {\r\n        admin = msg.sender;\r\n    }\r\n\r\n    modifier onlyAdmin() {\r\n        require(admin == msg.sender, \"Only the admin can call this function!\");\r\n        _;\r\n    }\r\n\r\n    modifier validAmount(uint _amount) {\r\n        require(_amount > 0, \"The number of tokens to trade must be greater than 0\");\r\n        _;\r\n    }\r\n\r\n    modifier onlyAllowedTokens(bytes32 _symbol) {\r\n        // check in the tokens mapping if the _symbol is a valid token by validating if the tokenAddress of the _symbol is different than the 0 address\r\n        // If the _symbol address in the tokens mappings is equals to the 0 address it means that that token is not an allowed token\r\n        require(tokens[_symbol].tokenAddress != address(0), \"The token is not an allowed token, contact the adminsitrator\");\r\n        _;\r\n    }\r\n\r\n    modifier tokenIsNotDai(bytes32 _symbol) {\r\n        require(_symbol != DAI, \"DAI Token can't be traded, reverting operation\");\r\n        _;\r\n    }\r\n\r\n    function addToken(bytes32 _symbol, address _tokenAddress) external onlyAdmin() {\r\n        tokens[_symbol] = Token(_symbol,_tokenAddress);\r\n        tokenList.push(_symbol);\r\n    }\r\n\r\n    function deposit(bytes32 _symbol, uint _amount) external onlyAllowedTokens(_symbol) {\r\n        IERC20(tokens[_symbol].tokenAddress).transferFrom(msg.sender, address(this), _amount);\r\n        tokenBalances[msg.sender][_symbol] = tokenBalances[msg.sender][_symbol].add(_amount);\r\n    }\r\n\r\n    function withdraw(bytes32 _symbol, uint _amount) external onlyAllowedTokens(_symbol) {\r\n        require(_amount <= tokenBalances[msg.sender][_symbol] , \"Not enough balance, check that you have enough balance of the token that you are trying to withdraw\");\r\n        // Uodate user's token balance before transfering the tokens - Prevent reentrancy attacks\r\n        tokenBalances[msg.sender][_symbol] = tokenBalances[msg.sender][_symbol].sub(_amount);\r\n        IERC20(tokens[_symbol].tokenAddress).transfer(msg.sender,_amount);\r\n    }\r\n\r\n    function createLimitOrder(bytes32 _symbol, uint _amount, uint _price, OrderType _orderType) external validAmount(_amount) onlyAllowedTokens(_symbol) tokenIsNotDai(_symbol) {\r\n        if(_orderType == OrderType.SELL) {\r\n            require(tokenBalances[msg.sender][_symbol] >= _amount, \"There is not enough Tokens in the balance to create a SELL Order\");\r\n        } else {\r\n            require(tokenBalances[msg.sender][DAI] >= _amount.mul(_price), \"There is not enough DAI Tokens in the balance to create a BUY Order\");\r\n        }\r\n\r\n        Order[] storage orders = orderBook[_symbol][_orderType];\r\n        orders.push(Order(nextOrderId,_orderType,msg.sender,_symbol,_amount,0,_price,block.timestamp));\r\n        \r\n        // bubble sort algorithm to sort the new Order properly in the Order[] orders array\r\n            // If it's a BUY order, the highest prices go first\r\n            // If it's a SELL order, the lowest prices go first\r\n        uint i = (orders.length > 0 ? orders.length -1 : 0);\r\n        while(i > 0) {\r\n            if(orders[i].orderType == OrderType.BUY && orders[i-1].price > orders[i].price) {\r\n                break;\r\n            }\r\n            if(orders[i].orderType == OrderType.SELL && orders[i-1].price < orders[i].price) {\r\n                break;\r\n            }\r\n            // If any of the above conditions was met, that means that the order at the left is greater and is required to swap the orders to sort the new order!\r\n            Order memory order = orders[i-1];   // Store in a temporary order the order at the left (i-1)\r\n            orders[i-1] = orders[i];    // Swap the order at the left for the new order (the new order will always be the order at the i index)\r\n            orders[i] = order;  // After the new order has been re-order at the left, now assign the order that was at the left onto the current position\r\n\r\n            i = i.sub(1);\r\n        }\r\n        nextOrderId = nextOrderId.add(1);\r\n    }\r\n\r\n    function createMarketOrder(bytes32 _symbol, uint _amount, OrderType _orderType) external validAmount(_amount) onlyAllowedTokens(_symbol) tokenIsNotDai(_symbol) {\r\n        if(_orderType == OrderType.SELL) {\r\n            require(_amount <= tokenBalances[msg.sender][_symbol], \"There is not enough Tokens in your balance, deposit more\");\r\n        }\r\n        \r\n        // Create a pointer to the opposite OrderType of the Market Order\r\n        Order[] storage orders = orderBook[_symbol][(_orderType == OrderType.SELL ? OrderType.BUY : OrderType.SELL)];\r\n\r\n        // Algorithm to fill Market Orders\r\n        uint remaining = _amount;\r\n        uint i = 0;\r\n        while(i < orders.length && remaining > 0) {\r\n            uint available = orders[i].amount - orders[i].filled;\r\n            uint matched = (remaining > available ? available : remaining);\r\n            remaining = remaining.sub(matched);\r\n            orders[i].filled = orders[i].filled.add(matched);\r\n            emit Trade(nextTradeId, orders[i].orderId, orders[i].symbol, orders[i].orderType, msg.sender, orders[i].trader, matched, orders[i].price, (orders[i].price.mul(matched)), block.timestamp);\r\n\r\n            if(_orderType == OrderType.SELL) {\r\n                // For the user that created the Marker Order - userInitiator\r\n                tokenBalances[msg.sender][_symbol] = tokenBalances[msg.sender][_symbol].sub(matched);\r\n                tokenBalances[msg.sender][DAI] = tokenBalances[msg.sender][DAI].add(matched.mul(orders[i].price));\r\n                // For the user that created the Limit Order - userFill\r\n                tokenBalances[orders[i].trader][_symbol] = tokenBalances[orders[i].trader][_symbol].add(matched);\r\n                tokenBalances[orders[i].trader][DAI] = tokenBalances[orders[i].trader][DAI].sub(matched.mul(orders[i].price));\r\n            } else {    // If the Market Order is a BUY Order\r\n                // Validate that the Buyer (the userInitiation - the one who crates the Market Order) has enough DAI to pay for the requested amount of Tokens\r\n                require(tokenBalances[msg.sender][DAI] >= _amount.mul(orders[i].price), \"The user does not have enough DAI to buy the requested amount of tokens\");\r\n                \r\n                // For the user that created the Marker Order - userInitiator\r\n                tokenBalances[msg.sender][_symbol] = tokenBalances[msg.sender][_symbol].add(matched);\r\n                tokenBalances[msg.sender][DAI] = tokenBalances[msg.sender][DAI].sub(matched.mul(orders[i].price));\r\n                // For the user that created the Limit Order - userFill\r\n                tokenBalances[orders[i].trader][_symbol] = tokenBalances[orders[i].trader][_symbol].sub(matched);\r\n                tokenBalances[orders[i].trader][DAI] = tokenBalances[orders[i].trader][DAI].add(matched.mul(orders[i].price));\r\n            }\r\n            nextTradeId = nextTradeId.add(1);\r\n            i = i.add(1);\r\n        }\r\n\r\n        // Algorithm to clean up orders that have been totally filled from the Order Book\r\n        i = 0;\r\n        while(i < orders.length){\r\n            if(orders[i].amount == orders[i].filled) {\r\n                for(uint j = i; j < orders.length -1; j++) {\r\n                    orders[j] = orders[j + 1];\r\n                }\r\n                orders.pop();\r\n                continue;\r\n            }\r\n            i = i.add(1);\r\n        }\r\n    }\r\n\r\n    function getOrders(bytes32 _symbol, OrderType _orderType) external view returns(Order[] memory) {\r\n        return orderBook[_symbol][_orderType];\r\n    }\r\n\r\n    function getTokens() external view returns(Token[] memory) {\r\n        Token[] memory _tokens = new Token[](tokenList.length);\r\n        for(uint i = 0; i < tokenList.length; i++) {\r\n            // tokenList[i] gives access to the symbol = a bytes32 variable\r\n            _tokens[i] = Token(\r\n                tokens[tokenList[i]].symbol,\r\n                tokens[tokenList[i]].tokenAddress\r\n                );\r\n        }\r\n        return _tokens;\r\n    }\r\n    \r\n}",
  "sourcePath": "/mnt/c/pr0/blockchain-projects/DEX-for-ERC20-Tokens/contracts/DEX.sol",
  "compiler": {
    "name": "solc",
    "version": "0.8.11+commit.d7f03943.Emscripten.clang"
  },
  "schemaVersion": "3.4.4",
  "updatedAt": "2022-06-25T15:41:03.857Z",
  "networkType": "ethereum",
  "devdoc": {
    "kind": "dev",
    "methods": {},
    "version": 1
  },
  "userdoc": {
    "kind": "user",
    "methods": {},
    "version": 1
  }
}