{
  "contractName": "DEX",
  "abi": [
    {
      "inputs": [],
      "stateMutability": "nonpayable",
      "type": "constructor"
    },
    {
      "anonymous": false,
      "inputs": [
        {
          "indexed": false,
          "internalType": "uint256",
          "name": "tradeId",
          "type": "uint256"
        },
        {
          "indexed": false,
          "internalType": "uint256",
          "name": "orderId",
          "type": "uint256"
        },
        {
          "indexed": true,
          "internalType": "bytes32",
          "name": "tokenSymbol",
          "type": "bytes32"
        },
        {
          "indexed": false,
          "internalType": "enum DEX.OrderType",
          "name": "_orderType",
          "type": "uint8"
        },
        {
          "indexed": true,
          "internalType": "address",
          "name": "userInitiator",
          "type": "address"
        },
        {
          "indexed": true,
          "internalType": "address",
          "name": "userFill",
          "type": "address"
        },
        {
          "indexed": false,
          "internalType": "uint256",
          "name": "tokenAmount",
          "type": "uint256"
        },
        {
          "indexed": false,
          "internalType": "uint256",
          "name": "pricePerToken",
          "type": "uint256"
        },
        {
          "indexed": false,
          "internalType": "uint256",
          "name": "totalCost",
          "type": "uint256"
        },
        {
          "indexed": false,
          "internalType": "uint256",
          "name": "timestamp",
          "type": "uint256"
        }
      ],
      "name": "Trade",
      "type": "event"
    },
    {
      "inputs": [],
      "name": "admin",
      "outputs": [
        {
          "internalType": "address",
          "name": "",
          "type": "address"
        }
      ],
      "stateMutability": "view",
      "type": "function",
      "constant": true
    },
    {
      "inputs": [],
      "name": "nextTradeId",
      "outputs": [
        {
          "internalType": "uint256",
          "name": "",
          "type": "uint256"
        }
      ],
      "stateMutability": "view",
      "type": "function",
      "constant": true
    },
    {
      "inputs": [
        {
          "internalType": "bytes32",
          "name": "",
          "type": "bytes32"
        },
        {
          "internalType": "enum DEX.OrderType",
          "name": "",
          "type": "uint8"
        },
        {
          "internalType": "uint256",
          "name": "",
          "type": "uint256"
        }
      ],
      "name": "orderBook",
      "outputs": [
        {
          "internalType": "uint256",
          "name": "orderId",
          "type": "uint256"
        },
        {
          "internalType": "enum DEX.OrderType",
          "name": "orderType",
          "type": "uint8"
        },
        {
          "internalType": "address",
          "name": "trader",
          "type": "address"
        },
        {
          "internalType": "bytes32",
          "name": "symbol",
          "type": "bytes32"
        },
        {
          "internalType": "uint256",
          "name": "amount",
          "type": "uint256"
        },
        {
          "internalType": "uint256",
          "name": "filled",
          "type": "uint256"
        },
        {
          "internalType": "uint256",
          "name": "price",
          "type": "uint256"
        },
        {
          "internalType": "uint256",
          "name": "date",
          "type": "uint256"
        }
      ],
      "stateMutability": "view",
      "type": "function",
      "constant": true
    },
    {
      "inputs": [
        {
          "internalType": "address",
          "name": "",
          "type": "address"
        },
        {
          "internalType": "bytes32",
          "name": "",
          "type": "bytes32"
        }
      ],
      "name": "tokenBalances",
      "outputs": [
        {
          "internalType": "uint256",
          "name": "",
          "type": "uint256"
        }
      ],
      "stateMutability": "view",
      "type": "function",
      "constant": true
    },
    {
      "inputs": [
        {
          "internalType": "uint256",
          "name": "",
          "type": "uint256"
        }
      ],
      "name": "tokenList",
      "outputs": [
        {
          "internalType": "bytes32",
          "name": "",
          "type": "bytes32"
        }
      ],
      "stateMutability": "view",
      "type": "function",
      "constant": true
    },
    {
      "inputs": [
        {
          "internalType": "bytes32",
          "name": "_symbol",
          "type": "bytes32"
        },
        {
          "internalType": "address",
          "name": "_tokenAddress",
          "type": "address"
        }
      ],
      "name": "addToken",
      "outputs": [],
      "stateMutability": "nonpayable",
      "type": "function"
    },
    {
      "inputs": [
        {
          "internalType": "bytes32",
          "name": "_symbol",
          "type": "bytes32"
        },
        {
          "internalType": "uint256",
          "name": "_amount",
          "type": "uint256"
        }
      ],
      "name": "deposit",
      "outputs": [],
      "stateMutability": "nonpayable",
      "type": "function"
    },
    {
      "inputs": [
        {
          "internalType": "bytes32",
          "name": "_symbol",
          "type": "bytes32"
        },
        {
          "internalType": "uint256",
          "name": "_amount",
          "type": "uint256"
        }
      ],
      "name": "withdraw",
      "outputs": [],
      "stateMutability": "nonpayable",
      "type": "function"
    },
    {
      "inputs": [
        {
          "internalType": "bytes32",
          "name": "_symbol",
          "type": "bytes32"
        },
        {
          "internalType": "uint256",
          "name": "_amount",
          "type": "uint256"
        },
        {
          "internalType": "uint256",
          "name": "_price",
          "type": "uint256"
        },
        {
          "internalType": "enum DEX.OrderType",
          "name": "_orderType",
          "type": "uint8"
        }
      ],
      "name": "createLimitOrder",
      "outputs": [],
      "stateMutability": "nonpayable",
      "type": "function"
    },
    {
      "inputs": [
        {
          "internalType": "bytes32",
          "name": "_symbol",
          "type": "bytes32"
        },
        {
          "internalType": "uint256",
          "name": "_amount",
          "type": "uint256"
        },
        {
          "internalType": "enum DEX.OrderType",
          "name": "_orderType",
          "type": "uint8"
        }
      ],
      "name": "createMarketOrder",
      "outputs": [],
      "stateMutability": "nonpayable",
      "type": "function"
    },
    {
      "inputs": [
        {
          "internalType": "bytes32",
          "name": "_symbol",
          "type": "bytes32"
        },
        {
          "internalType": "enum DEX.OrderType",
          "name": "_orderType",
          "type": "uint8"
        }
      ],
      "name": "getOrders",
      "outputs": [
        {
          "components": [
            {
              "internalType": "uint256",
              "name": "orderId",
              "type": "uint256"
            },
            {
              "internalType": "enum DEX.OrderType",
              "name": "orderType",
              "type": "uint8"
            },
            {
              "internalType": "address",
              "name": "trader",
              "type": "address"
            },
            {
              "internalType": "bytes32",
              "name": "symbol",
              "type": "bytes32"
            },
            {
              "internalType": "uint256",
              "name": "amount",
              "type": "uint256"
            },
            {
              "internalType": "uint256",
              "name": "filled",
              "type": "uint256"
            },
            {
              "internalType": "uint256",
              "name": "price",
              "type": "uint256"
            },
            {
              "internalType": "uint256",
              "name": "date",
              "type": "uint256"
            }
          ],
          "internalType": "struct DEX.Order[]",
          "name": "",
          "type": "tuple[]"
        }
      ],
      "stateMutability": "view",
      "type": "function",
      "constant": true
    },
    {
      "inputs": [],
      "name": "getTokens",
      "outputs": [
        {
          "components": [
            {
              "internalType": "bytes32",
              "name": "symbol",
              "type": "bytes32"
            },
            {
              "internalType": "address",
              "name": "tokenAddress",
              "type": "address"
            }
          ],
          "internalType": "struct DEX.Token[]",
          "name": "",
          "type": "tuple[]"
        }
      ],
      "stateMutability": "view",
      "type": "function",
      "constant": true
    },
    {
      "inputs": [
        {
          "internalType": "bytes32",
          "name": "_symbol",
          "type": "bytes32"
        }
      ],
      "name": "getTotalTokensInDex",
      "outputs": [
        {
          "internalType": "uint256",
          "name": "",
          "type": "uint256"
        }
      ],
      "stateMutability": "view",
      "type": "function",
      "constant": true
    }
  ],
  "bytecode": "0x608060405234801561001057600080fd5b5033600560006101000a81548173ffffffffffffffffffffffffffffffffffffffff021916908373ffffffffffffffffffffffffffffffffffffffff160217905550613b8f806100616000396000f3fe608060405234801561001057600080fd5b50600436106100cf5760003560e01c80638c29bec01161008c578063aa6ca80811610066578063aa6ca80814610229578063d520d23c14610247578063d9c0c95014610277578063f851a44014610293576100cf565b80638c29bec0146101a65780639776aacf146101dd5780639ead7222146101f9576100cf565b8063040cf020146100d457806314df5253146100f05780631de26e161461012057806346e9658b1461013c5780637f2c62461461016c578063813ad08314610188575b600080fd5b6100ee60048036038101906100e99190612b64565b6102b1565b005b61010a60048036038101906101059190612ba4565b610611565b6040516101179190612be0565b60405180910390f35b61013a60048036038101906101359190612b64565b61066b565b005b61015660048036038101906101519190612c20565b61093a565b6040516101639190612e88565b60405180910390f35b61018660048036038101906101819190612eaa565b610ab0565b005b610190611d50565b60405161019d9190612be0565b60405180910390f35b6101c060048036038101906101bb9190612efd565b611d56565b6040516101d4989796959493929190612f7d565b60405180910390f35b6101f760048036038101906101f29190613027565b611df5565b005b610213600480360381019061020e9190613067565b611f43565b6040516102209190613094565b60405180910390f35b610231611f67565b60405161023e919061318d565b60405180910390f35b610261600480360381019061025c91906131af565b6120c0565b60405161026e9190612be0565b60405180910390f35b610291600480360381019061028c91906131ef565b6120e5565b005b61029b612a58565b6040516102a89190613256565b60405180910390f35b81600073ffffffffffffffffffffffffffffffffffffffff1660008083815260200190815260200160002060010160009054906101000a900473ffffffffffffffffffffffffffffffffffffffff1673ffffffffffffffffffffffffffffffffffffffff161415610357576040517f08c379a000000000000000000000000000000000000000000000000000000000815260040161034e906132f4565b60405180910390fd5b600260003373ffffffffffffffffffffffffffffffffffffffff1673ffffffffffffffffffffffffffffffffffffffff1681526020019081526020016000206000848152602001908152602001600020548211156103ea576040517f08c379a00000000000000000000000000000000000000000000000000000000081526004016103e1906133d2565b60405180910390fd5b61044d82600260003373ffffffffffffffffffffffffffffffffffffffff1673ffffffffffffffffffffffffffffffffffffffff168152602001908152602001600020600086815260200190815260200160002054612a7e90919063ffffffff16565b600260003373ffffffffffffffffffffffffffffffffffffffff1673ffffffffffffffffffffffffffffffffffffffff16815260200190815260200160002060008581526020019081526020016000208190555060008084815260200190815260200160002060010160009054906101000a900473ffffffffffffffffffffffffffffffffffffffff1673ffffffffffffffffffffffffffffffffffffffff1663a9059cbb33846040518363ffffffff1660e01b81526004016105119291906133f2565b6020604051808303816000875af1158015610530573d6000803e3d6000fd5b505050506040513d601f19601f820116820180604052508101906105549190613453565b506105b882600260003073ffffffffffffffffffffffffffffffffffffffff1673ffffffffffffffffffffffffffffffffffffffff168152602001908152602001600020600086815260200190815260200160002054612a7e90919063ffffffff16565b600260003073ffffffffffffffffffffffffffffffffffffffff1673ffffffffffffffffffffffffffffffffffffffff168152602001908152602001600020600085815260200190815260200160002081905550505050565b6000600260003073ffffffffffffffffffffffffffffffffffffffff1673ffffffffffffffffffffffffffffffffffffffff1681526020019081526020016000206000838152602001908152602001600020549050919050565b81600073ffffffffffffffffffffffffffffffffffffffff1660008083815260200190815260200160002060010160009054906101000a900473ffffffffffffffffffffffffffffffffffffffff1673ffffffffffffffffffffffffffffffffffffffff161415610711576040517f08c379a0000000000000000000000000000000000000000000000000000000008152600401610708906132f4565b60405180910390fd5b60008084815260200190815260200160002060010160009054906101000a900473ffffffffffffffffffffffffffffffffffffffff1673ffffffffffffffffffffffffffffffffffffffff166323b872dd3330856040518463ffffffff1660e01b815260040161078393929190613480565b6020604051808303816000875af11580156107a2573d6000803e3d6000fd5b505050506040513d601f19601f820116820180604052508101906107c69190613453565b5061082a82600260003373ffffffffffffffffffffffffffffffffffffffff1673ffffffffffffffffffffffffffffffffffffffff168152602001908152602001600020600086815260200190815260200160002054612a9490919063ffffffff16565b600260003373ffffffffffffffffffffffffffffffffffffffff1673ffffffffffffffffffffffffffffffffffffffff1681526020019081526020016000206000858152602001908152602001600020819055506108e182600260003073ffffffffffffffffffffffffffffffffffffffff1673ffffffffffffffffffffffffffffffffffffffff168152602001908152602001600020600086815260200190815260200160002054612a9490919063ffffffff16565b600260003073ffffffffffffffffffffffffffffffffffffffff1673ffffffffffffffffffffffffffffffffffffffff168152602001908152602001600020600085815260200190815260200160002081905550505050565b606060036000848152602001908152602001600020600083600181111561096457610963612c9b565b5b600181111561097657610975612c9b565b5b8152602001908152602001600020805480602002602001604051908101604052809291908181526020016000905b82821015610aa4578382906000526020600020906007020160405180610100016040529081600082015481526020016001820160009054906101000a900460ff1660018111156109f7576109f6612c9b565b5b6001811115610a0957610a08612c9b565b5b81526020016001820160019054906101000a900473ffffffffffffffffffffffffffffffffffffffff1673ffffffffffffffffffffffffffffffffffffffff1673ffffffffffffffffffffffffffffffffffffffff16815260200160028201548152602001600382015481526020016004820154815260200160058201548152602001600682015481525050815260200190600101906109a4565b50505050905092915050565b8160008111610af4576040517f08c379a0000000000000000000000000000000000000000000000000000000008152600401610aeb90613529565b60405180910390fd5b83600073ffffffffffffffffffffffffffffffffffffffff1660008083815260200190815260200160002060010160009054906101000a900473ffffffffffffffffffffffffffffffffffffffff1673ffffffffffffffffffffffffffffffffffffffff161415610b9a576040517f08c379a0000000000000000000000000000000000000000000000000000000008152600401610b91906132f4565b60405180910390fd5b847f4441490000000000000000000000000000000000000000000000000000000000811415610bfe576040517f08c379a0000000000000000000000000000000000000000000000000000000008152600401610bf5906135bb565b60405180910390fd5b600180811115610c1157610c10612c9b565b5b846001811115610c2457610c23612c9b565b5b1415610cbe57600260003373ffffffffffffffffffffffffffffffffffffffff1673ffffffffffffffffffffffffffffffffffffffff168152602001908152602001600020600087815260200190815260200160002054851115610cbd576040517f08c379a0000000000000000000000000000000000000000000000000000000008152600401610cb49061364d565b60405180910390fd5b5b6000600360008881526020019081526020016000206000600180811115610ce857610ce7612c9b565b5b876001811115610cfb57610cfa612c9b565b5b14610d07576001610d0a565b60005b6001811115610d1c57610d1b612c9b565b5b6001811115610d2e57610d2d612c9b565b5b81526020019081526020016000209050600086905060005b828054905081108015610d595750600082115b15611acc576000838281548110610d7357610d7261366d565b5b906000526020600020906007020160040154848381548110610d9857610d9761366d565b5b906000526020600020906007020160030154610db491906136cb565b90506000818411610dc55783610dc7565b815b9050610ddc8185612a7e90919063ffffffff16565b9350610e1581868581548110610df557610df461366d565b5b906000526020600020906007020160040154612a9490919063ffffffff16565b858481548110610e2857610e2761366d565b5b906000526020600020906007020160040181905550600180811115610e5057610e4f612c9b565b5b896001811115610e6357610e62612c9b565b5b141561134657610ecc81600260003373ffffffffffffffffffffffffffffffffffffffff1673ffffffffffffffffffffffffffffffffffffffff16815260200190815260200160002060008e815260200190815260200160002054612a7e90919063ffffffff16565b600260003373ffffffffffffffffffffffffffffffffffffffff1673ffffffffffffffffffffffffffffffffffffffff16815260200190815260200160002060008d815260200190815260200160002081905550610fd9610f5a868581548110610f3957610f3861366d565b5b90600052602060002090600702016005015483612aaa90919063ffffffff16565b600260003373ffffffffffffffffffffffffffffffffffffffff1673ffffffffffffffffffffffffffffffffffffffff16815260200190815260200160002060007f4441490000000000000000000000000000000000000000000000000000000000815260200190815260200160002054612a9490919063ffffffff16565b600260003373ffffffffffffffffffffffffffffffffffffffff1673ffffffffffffffffffffffffffffffffffffffff16815260200190815260200160002060007f44414900000000000000000000000000000000000000000000000000000000008152602001908152602001600020819055506110f481600260008887815481106110685761106761366d565b5b906000526020600020906007020160010160019054906101000a900473ffffffffffffffffffffffffffffffffffffffff1673ffffffffffffffffffffffffffffffffffffffff1673ffffffffffffffffffffffffffffffffffffffff16815260200190815260200160002060008e815260200190815260200160002054612a9490919063ffffffff16565b6002600087868154811061110b5761110a61366d565b5b906000526020600020906007020160010160019054906101000a900473ffffffffffffffffffffffffffffffffffffffff1673ffffffffffffffffffffffffffffffffffffffff1673ffffffffffffffffffffffffffffffffffffffff16815260200190815260200160002060008d8152602001908152602001600020819055506112896111c68685815481106111a5576111a461366d565b5b90600052602060002090600702016005015483612aaa90919063ffffffff16565b600260008887815481106111dd576111dc61366d565b5b906000526020600020906007020160010160019054906101000a900473ffffffffffffffffffffffffffffffffffffffff1673ffffffffffffffffffffffffffffffffffffffff1673ffffffffffffffffffffffffffffffffffffffff16815260200190815260200160002060007f4441490000000000000000000000000000000000000000000000000000000000815260200190815260200160002054612a7e90919063ffffffff16565b600260008786815481106112a05761129f61366d565b5b906000526020600020906007020160010160019054906101000a900473ffffffffffffffffffffffffffffffffffffffff1673ffffffffffffffffffffffffffffffffffffffff1673ffffffffffffffffffffffffffffffffffffffff16815260200190815260200160002060007f4441490000000000000000000000000000000000000000000000000000000000815260200190815260200160002081905550611908565b61137d85848154811061135c5761135b61366d565b5b9060005260206000209060070201600501548b612aaa90919063ffffffff16565b600260003373ffffffffffffffffffffffffffffffffffffffff1673ffffffffffffffffffffffffffffffffffffffff16815260200190815260200160002060007f4441490000000000000000000000000000000000000000000000000000000000815260200190815260200160002054101561142f576040517f08c379a000000000000000000000000000000000000000000000000000000000815260040161142690613797565b60405180910390fd5b61149281600260003373ffffffffffffffffffffffffffffffffffffffff1673ffffffffffffffffffffffffffffffffffffffff16815260200190815260200160002060008e815260200190815260200160002054612a9490919063ffffffff16565b600260003373ffffffffffffffffffffffffffffffffffffffff1673ffffffffffffffffffffffffffffffffffffffff16815260200190815260200160002060008d81526020019081526020016000208190555061159f6115208685815481106114ff576114fe61366d565b5b90600052602060002090600702016005015483612aaa90919063ffffffff16565b600260003373ffffffffffffffffffffffffffffffffffffffff1673ffffffffffffffffffffffffffffffffffffffff16815260200190815260200160002060007f4441490000000000000000000000000000000000000000000000000000000000815260200190815260200160002054612a7e90919063ffffffff16565b600260003373ffffffffffffffffffffffffffffffffffffffff1673ffffffffffffffffffffffffffffffffffffffff16815260200190815260200160002060007f44414900000000000000000000000000000000000000000000000000000000008152602001908152602001600020819055506116ba816002600088878154811061162e5761162d61366d565b5b906000526020600020906007020160010160019054906101000a900473ffffffffffffffffffffffffffffffffffffffff1673ffffffffffffffffffffffffffffffffffffffff1673ffffffffffffffffffffffffffffffffffffffff16815260200190815260200160002060008e815260200190815260200160002054612a7e90919063ffffffff16565b600260008786815481106116d1576116d061366d565b5b906000526020600020906007020160010160019054906101000a900473ffffffffffffffffffffffffffffffffffffffff1673ffffffffffffffffffffffffffffffffffffffff1673ffffffffffffffffffffffffffffffffffffffff16815260200190815260200160002060008d81526020019081526020016000208190555061184f61178c86858154811061176b5761176a61366d565b5b90600052602060002090600702016005015483612aaa90919063ffffffff16565b600260008887815481106117a3576117a261366d565b5b906000526020600020906007020160010160019054906101000a900473ffffffffffffffffffffffffffffffffffffffff1673ffffffffffffffffffffffffffffffffffffffff1673ffffffffffffffffffffffffffffffffffffffff16815260200190815260200160002060007f4441490000000000000000000000000000000000000000000000000000000000815260200190815260200160002054612a9490919063ffffffff16565b600260008786815481106118665761186561366d565b5b906000526020600020906007020160010160019054906101000a900473ffffffffffffffffffffffffffffffffffffffff1673ffffffffffffffffffffffffffffffffffffffff1673ffffffffffffffffffffffffffffffffffffffff16815260200190815260200160002060007f44414900000000000000000000000000000000000000000000000000000000008152602001908152602001600020819055505b84838154811061191b5761191a61366d565b5b906000526020600020906007020160010160019054906101000a900473ffffffffffffffffffffffffffffffffffffffff1673ffffffffffffffffffffffffffffffffffffffff163373ffffffffffffffffffffffffffffffffffffffff1686858154811061198d5761198c61366d565b5b9060005260206000209060070201600201547f67b5a1cffc6f430758db4127f49534d3aaf2c08b9ac9a53e3e291243806962e26006548988815481106119d6576119d561366d565b5b9060005260206000209060070201600001548a89815481106119fb576119fa61366d565b5b906000526020600020906007020160010160009054906101000a900460ff16878c8b81548110611a2e57611a2d61366d565b5b906000526020600020906007020160050154611a778a8f8e81548110611a5757611a5661366d565b5b906000526020600020906007020160050154612aaa90919063ffffffff16565b42604051611a8b97969594939291906137b7565b60405180910390a4611aa96001600654612a9490919063ffffffff16565b600681905550611ac3600184612a9490919063ffffffff16565b92505050610d46565b600090505b8280549050811015611d4557828181548110611af057611aef61366d565b5b906000526020600020906007020160040154838281548110611b1557611b1461366d565b5b9060005260206000209060070201600301541415611d2a5760008190505b60018480549050611b4491906136cb565b811015611c8f5783600182611b599190613826565b81548110611b6a57611b6961366d565b5b9060005260206000209060070201848281548110611b8b57611b8a61366d565b5b9060005260206000209060070201600082015481600001556001820160009054906101000a900460ff168160010160006101000a81548160ff02191690836001811115611bdb57611bda612c9b565b5b02179055506001820160019054906101000a900473ffffffffffffffffffffffffffffffffffffffff168160010160016101000a81548173ffffffffffffffffffffffffffffffffffffffff021916908373ffffffffffffffffffffffffffffffffffffffff16021790555060028201548160020155600382015481600301556004820154816004015560058201548160050155600682015481600601559050508080611c879061387c565b915050611b33565b5082805480611ca157611ca06138c5565b5b60019003818190600052602060002090600702016000808201600090556001820160006101000a81549060ff02191690556001820160016101000a81549073ffffffffffffffffffffffffffffffffffffffff02191690556002820160009055600382016000905560048201600090556005820160009055600682016000905550509055611ad1565b611d3e600182612a9490919063ffffffff16565b9050611ad1565b505050505050505050565b60065481565b60036020528260005260406000206020528160005260406000208181548110611d7e57600080fd5b906000526020600020906007020160009250925050508060000154908060010160009054906101000a900460ff16908060010160019054906101000a900473ffffffffffffffffffffffffffffffffffffffff16908060020154908060030154908060040154908060050154908060060154905088565b3373ffffffffffffffffffffffffffffffffffffffff16600560009054906101000a900473ffffffffffffffffffffffffffffffffffffffff1673ffffffffffffffffffffffffffffffffffffffff1614611e85576040517f08c379a0000000000000000000000000000000000000000000000000000000008152600401611e7c90613966565b60405180910390fd5b60405180604001604052808381526020018273ffffffffffffffffffffffffffffffffffffffff168152506000808481526020019081526020016000206000820151816000015560208201518160010160006101000a81548173ffffffffffffffffffffffffffffffffffffffff021916908373ffffffffffffffffffffffffffffffffffffffff16021790555090505060018290806001815401808255809150506001900390600052602060002001600090919091909150555050565b60018181548110611f5357600080fd5b906000526020600020016000915090505481565b6060600060018054905067ffffffffffffffff811115611f8a57611f89613986565b5b604051908082528060200260200182016040528015611fc357816020015b611fb0612ac0565b815260200190600190039081611fa85790505b50905060005b6001805490508110156120b857604051806040016040528060008060018581548110611ff857611ff761366d565b5b90600052602060002001548152602001908152602001600020600001548152602001600080600185815481106120315761203061366d565b5b9060005260206000200154815260200190815260200160002060010160009054906101000a900473ffffffffffffffffffffffffffffffffffffffff1673ffffffffffffffffffffffffffffffffffffffff1681525082828151811061209a5761209961366d565b5b602002602001018190525080806120b09061387c565b915050611fc9565b508091505090565b6002602052816000526040600020602052806000526040600020600091509150505481565b8260008111612129576040517f08c379a000000000000000000000000000000000000000000000000000000000815260040161212090613529565b60405180910390fd5b84600073ffffffffffffffffffffffffffffffffffffffff1660008083815260200190815260200160002060010160009054906101000a900473ffffffffffffffffffffffffffffffffffffffff1673ffffffffffffffffffffffffffffffffffffffff1614156121cf576040517f08c379a00000000000000000000000000000000000000000000000000000000081526004016121c6906132f4565b60405180910390fd5b857f4441490000000000000000000000000000000000000000000000000000000000811415612233576040517f08c379a000000000000000000000000000000000000000000000000000000000815260040161222a906135bb565b60405180910390fd5b60018081111561224657612245612c9b565b5b84600181111561225957612258612c9b565b5b14156122f75785600260003373ffffffffffffffffffffffffffffffffffffffff1673ffffffffffffffffffffffffffffffffffffffff16815260200190815260200160002060008981526020019081526020016000205410156122f2576040517f08c379a00000000000000000000000000000000000000000000000000000000081526004016122e990613a27565b60405180910390fd5b6123bd565b61230a8587612aaa90919063ffffffff16565b600260003373ffffffffffffffffffffffffffffffffffffffff1673ffffffffffffffffffffffffffffffffffffffff16815260200190815260200160002060007f444149000000000000000000000000000000000000000000000000000000000081526020019081526020016000205410156123bc576040517f08c379a00000000000000000000000000000000000000000000000000000000081526004016123b390613adf565b60405180910390fd5b5b60006003600089815260200190815260200160002060008660018111156123e7576123e6612c9b565b5b60018111156123f9576123f8612c9b565b5b8152602001908152602001600020905080604051806101000160405280600454815260200187600181111561243157612430612c9b565b5b81526020013373ffffffffffffffffffffffffffffffffffffffff1681526020018a8152602001898152602001600081526020018881526020014281525090806001815401808255809150506001900390600052602060002090600702016000909190919091506000820151816000015560208201518160010160006101000a81548160ff021916908360018111156124cd576124cc612c9b565b5b021790555060408201518160010160016101000a81548173ffffffffffffffffffffffffffffffffffffffff021916908373ffffffffffffffffffffffffffffffffffffffff160217905550606082015181600201556080820151816003015560a0820151816004015560c0820151816005015560e082015181600601555050600080828054905011612561576000612573565b6001828054905061257291906136cb565b5b90505b6000811115612a31576000600181111561259357612592612c9b565b5b8282815481106125a6576125a561366d565b5b906000526020600020906007020160010160009054906101000a900460ff1660018111156125d7576125d6612c9b565b5b14801561263757508181815481106125f2576125f161366d565b5b9060005260206000209060070201600501548260018361261291906136cb565b815481106126235761262261366d565b5b906000526020600020906007020160050154115b1561264157612a31565b60018081111561265457612653612c9b565b5b8282815481106126675761266661366d565b5b906000526020600020906007020160010160009054906101000a900460ff16600181111561269857612697612c9b565b5b1480156126f857508181815481106126b3576126b261366d565b5b906000526020600020906007020160050154826001836126d391906136cb565b815481106126e4576126e361366d565b5b906000526020600020906007020160050154105b1561270257612a31565b60008260018361271291906136cb565b815481106127235761272261366d565b5b906000526020600020906007020160405180610100016040529081600082015481526020016001820160009054906101000a900460ff16600181111561276c5761276b612c9b565b5b600181111561277e5761277d612c9b565b5b81526020016001820160019054906101000a900473ffffffffffffffffffffffffffffffffffffffff1673ffffffffffffffffffffffffffffffffffffffff1673ffffffffffffffffffffffffffffffffffffffff16815260200160028201548152602001600382015481526020016004820154815260200160058201548152602001600682015481525050905082828154811061281f5761281e61366d565b5b90600052602060002090600702018360018461283b91906136cb565b8154811061284c5761284b61366d565b5b9060005260206000209060070201600082015481600001556001820160009054906101000a900460ff168160010160006101000a81548160ff0219169083600181111561289c5761289b612c9b565b5b02179055506001820160019054906101000a900473ffffffffffffffffffffffffffffffffffffffff168160010160016101000a81548173ffffffffffffffffffffffffffffffffffffffff021916908373ffffffffffffffffffffffffffffffffffffffff1602179055506002820154816002015560038201548160030155600482015481600401556005820154816005015560068201548160060155905050808383815481106129515761295061366d565b5b90600052602060002090600702016000820151816000015560208201518160010160006101000a81548160ff0219169083600181111561299457612993612c9b565b5b021790555060408201518160010160016101000a81548173ffffffffffffffffffffffffffffffffffffffff021916908373ffffffffffffffffffffffffffffffffffffffff160217905550606082015181600201556080820151816003015560a0820151816004015560c0820151816005015560e08201518160060155905050612a29600183612a7e90919063ffffffff16565b915050612576565b612a476001600454612a9490919063ffffffff16565b600481905550505050505050505050565b600560009054906101000a900473ffffffffffffffffffffffffffffffffffffffff1681565b60008183612a8c91906136cb565b905092915050565b60008183612aa29190613826565b905092915050565b60008183612ab89190613aff565b905092915050565b604051806040016040528060008019168152602001600073ffffffffffffffffffffffffffffffffffffffff1681525090565b600080fd5b6000819050919050565b612b0b81612af8565b8114612b1657600080fd5b50565b600081359050612b2881612b02565b92915050565b6000819050919050565b612b4181612b2e565b8114612b4c57600080fd5b50565b600081359050612b5e81612b38565b92915050565b60008060408385031215612b7b57612b7a612af3565b5b6000612b8985828601612b19565b9250506020612b9a85828601612b4f565b9150509250929050565b600060208284031215612bba57612bb9612af3565b5b6000612bc884828501612b19565b91505092915050565b612bda81612b2e565b82525050565b6000602082019050612bf56000830184612bd1565b92915050565b60028110612c0857600080fd5b50565b600081359050612c1a81612bfb565b92915050565b60008060408385031215612c3757612c36612af3565b5b6000612c4585828601612b19565b9250506020612c5685828601612c0b565b9150509250929050565b600081519050919050565b600082825260208201905092915050565b6000819050602082019050919050565b612c9581612b2e565b82525050565b7f4e487b7100000000000000000000000000000000000000000000000000000000600052602160045260246000fd5b60028110612cdb57612cda612c9b565b5b50565b6000819050612cec82612cca565b919050565b6000612cfc82612cde565b9050919050565b612d0c81612cf1565b82525050565b600073ffffffffffffffffffffffffffffffffffffffff82169050919050565b6000612d3d82612d12565b9050919050565b612d4d81612d32565b82525050565b612d5c81612af8565b82525050565b61010082016000820151612d796000850182612c8c565b506020820151612d8c6020850182612d03565b506040820151612d9f6040850182612d44565b506060820151612db26060850182612d53565b506080820151612dc56080850182612c8c565b5060a0820151612dd860a0850182612c8c565b5060c0820151612deb60c0850182612c8c565b5060e0820151612dfe60e0850182612c8c565b50505050565b6000612e108383612d62565b6101008301905092915050565b6000602082019050919050565b6000612e3582612c60565b612e3f8185612c6b565b9350612e4a83612c7c565b8060005b83811015612e7b578151612e628882612e04565b9750612e6d83612e1d565b925050600181019050612e4e565b5085935050505092915050565b60006020820190508181036000830152612ea28184612e2a565b905092915050565b600080600060608486031215612ec357612ec2612af3565b5b6000612ed186828701612b19565b9350506020612ee286828701612b4f565b9250506040612ef386828701612c0b565b9150509250925092565b600080600060608486031215612f1657612f15612af3565b5b6000612f2486828701612b19565b9350506020612f3586828701612c0b565b9250506040612f4686828701612b4f565b9150509250925092565b612f5981612cf1565b82525050565b612f6881612d32565b82525050565b612f7781612af8565b82525050565b600061010082019050612f93600083018b612bd1565b612fa0602083018a612f50565b612fad6040830189612f5f565b612fba6060830188612f6e565b612fc76080830187612bd1565b612fd460a0830186612bd1565b612fe160c0830185612bd1565b612fee60e0830184612bd1565b9998505050505050505050565b61300481612d32565b811461300f57600080fd5b50565b60008135905061302181612ffb565b92915050565b6000806040838503121561303e5761303d612af3565b5b600061304c85828601612b19565b925050602061305d85828601613012565b9150509250929050565b60006020828403121561307d5761307c612af3565b5b600061308b84828501612b4f565b91505092915050565b60006020820190506130a96000830184612f6e565b92915050565b600081519050919050565b600082825260208201905092915050565b6000819050602082019050919050565b6040820160008201516130f16000850182612d53565b5060208201516131046020850182612d44565b50505050565b600061311683836130db565b60408301905092915050565b6000602082019050919050565b600061313a826130af565b61314481856130ba565b935061314f836130cb565b8060005b83811015613180578151613167888261310a565b975061317283613122565b925050600181019050613153565b5085935050505092915050565b600060208201905081810360008301526131a7818461312f565b905092915050565b600080604083850312156131c6576131c5612af3565b5b60006131d485828601613012565b92505060206131e585828601612b19565b9150509250929050565b6000806000806080858703121561320957613208612af3565b5b600061321787828801612b19565b945050602061322887828801612b4f565b935050604061323987828801612b4f565b925050606061324a87828801612c0b565b91505092959194509250565b600060208201905061326b6000830184612f5f565b92915050565b600082825260208201905092915050565b7f54686520746f6b656e206973206e6f7420616e20616c6c6f77656420746f6b6560008201527f6e2c20636f6e74616374207468652061646d696e7369747261746f7200000000602082015250565b60006132de603c83613271565b91506132e982613282565b604082019050919050565b6000602082019050818103600083015261330d816132d1565b9050919050565b7f4e6f7420656e6f7567682062616c616e63652c20636865636b2074686174207960008201527f6f75206861766520656e6f7567682062616c616e6365206f662074686520746f60208201527f6b656e207468617420796f752061726520747279696e6720746f20776974686460408201527f7261770000000000000000000000000000000000000000000000000000000000606082015250565b60006133bc606383613271565b91506133c782613314565b608082019050919050565b600060208201905081810360008301526133eb816133af565b9050919050565b60006040820190506134076000830185612f5f565b6134146020830184612bd1565b9392505050565b60008115159050919050565b6134308161341b565b811461343b57600080fd5b50565b60008151905061344d81613427565b92915050565b60006020828403121561346957613468612af3565b5b60006134778482850161343e565b91505092915050565b60006060820190506134956000830186612f5f565b6134a26020830185612f5f565b6134af6040830184612bd1565b949350505050565b7f546865206e756d626572206f6620746f6b656e7320746f207472616465206d7560008201527f73742062652067726561746572207468616e2030000000000000000000000000602082015250565b6000613513603483613271565b915061351e826134b7565b604082019050919050565b6000602082019050818103600083015261354281613506565b9050919050565b7f44414920546f6b656e2063616e2774206265207472616465642c20726576657260008201527f74696e67206f7065726174696f6e000000000000000000000000000000000000602082015250565b60006135a5602e83613271565b91506135b082613549565b604082019050919050565b600060208201905081810360008301526135d481613598565b9050919050565b7f5468657265206973206e6f7420656e6f75676820546f6b656e7320696e20796f60008201527f75722062616c616e63652c206465706f736974206d6f72650000000000000000602082015250565b6000613637603883613271565b9150613642826135db565b604082019050919050565b600060208201905081810360008301526136668161362a565b9050919050565b7f4e487b7100000000000000000000000000000000000000000000000000000000600052603260045260246000fd5b7f4e487b7100000000000000000000000000000000000000000000000000000000600052601160045260246000fd5b60006136d682612b2e565b91506136e183612b2e565b9250828210156136f4576136f361369c565b5b828203905092915050565b7f546865207573657220646f6573206e6f74206861766520656e6f75676820444160008201527f4920746f20627579207468652072657175657374656420616d6f756e74206f6660208201527f20746f6b656e7300000000000000000000000000000000000000000000000000604082015250565b6000613781604783613271565b915061378c826136ff565b606082019050919050565b600060208201905081810360008301526137b081613774565b9050919050565b600060e0820190506137cc600083018a612bd1565b6137d96020830189612bd1565b6137e66040830188612f50565b6137f36060830187612bd1565b6138006080830186612bd1565b61380d60a0830185612bd1565b61381a60c0830184612bd1565b98975050505050505050565b600061383182612b2e565b915061383c83612b2e565b9250827fffffffffffffffffffffffffffffffffffffffffffffffffffffffffffffffff038211156138715761387061369c565b5b828201905092915050565b600061388782612b2e565b91507fffffffffffffffffffffffffffffffffffffffffffffffffffffffffffffffff8214156138ba576138b961369c565b5b600182019050919050565b7f4e487b7100000000000000000000000000000000000000000000000000000000600052603160045260246000fd5b7f4f6e6c79207468652061646d696e2063616e2063616c6c20746869732066756e60008201527f6374696f6e210000000000000000000000000000000000000000000000000000602082015250565b6000613950602683613271565b915061395b826138f4565b604082019050919050565b6000602082019050818103600083015261397f81613943565b9050919050565b7f4e487b7100000000000000000000000000000000000000000000000000000000600052604160045260246000fd5b7f5468657265206973206e6f7420656e6f75676820546f6b656e7320696e20746860008201527f652062616c616e636520746f2063726561746520612053454c4c204f72646572602082015250565b6000613a11604083613271565b9150613a1c826139b5565b604082019050919050565b60006020820190508181036000830152613a4081613a04565b9050919050565b7f5468657265206973206e6f7420656e6f7567682044414920546f6b656e73206960008201527f6e207468652062616c616e636520746f20637265617465206120425559204f7260208201527f6465720000000000000000000000000000000000000000000000000000000000604082015250565b6000613ac9604383613271565b9150613ad482613a47565b606082019050919050565b60006020820190508181036000830152613af881613abc565b9050919050565b6000613b0a82612b2e565b9150613b1583612b2e565b9250817fffffffffffffffffffffffffffffffffffffffffffffffffffffffffffffffff0483118215151615613b4e57613b4d61369c565b5b82820290509291505056fea264697066735822122031a81eccedd3e24f838e35e1b5fad436aa15666f7cb372039cfba9b27ebf25d964736f6c634300080b0033",
  "immutableReferences": {},
  "source": "// SPDX-License-Identifier: GPL-3.0-or-later\r\npragma solidity ^0.8.0;\r\n\r\nimport \"@openzeppelin/contracts/token/ERC20/IERC20.sol\";\r\nimport \"@openzeppelin/contracts/utils/math/SafeMath.sol\";\r\n\r\ncontract DEX {\r\n\r\n    using SafeMath for uint256;\r\n\r\n    struct Token {\r\n        bytes32 symbol;\r\n        address tokenAddress;\r\n    }\r\n\r\n    mapping(bytes32 => Token) tokens;   // This mapping will map the token's symbol to a Token struct instance\r\n    bytes32[] public tokenList;         // Using this tokenList will allow us to know the allowed tokens\r\n\r\n    mapping(address => mapping(bytes32 => uint)) public tokenBalances; // This nested mapping will allow us to know how many tokens of what token a user holds in the DEX's contract\r\n\r\n    enum OrderType {\r\n        BUY,\r\n        SELL\r\n    }\r\n\r\n    struct Order {\r\n        uint orderId;\r\n        OrderType orderType;\r\n        address trader;\r\n        bytes32 symbol;\r\n        uint amount;\r\n        uint filled;\r\n        uint price;\r\n        uint date;\r\n    }\r\n\r\n    mapping(bytes32 => mapping(OrderType => Order[])) public orderBook;\r\n\r\n    uint nextOrderId;\r\n    bytes32 constant DAI = bytes32(\"DAI\");\r\n\r\n    address public admin;\r\n\r\n    event Trade(\r\n        uint tradeId, \r\n        uint orderId, \r\n        bytes32 indexed tokenSymbol, \r\n        OrderType _orderType, \r\n        address indexed userInitiator, \r\n        address indexed userFill, \r\n        uint tokenAmount, \r\n        uint pricePerToken, \r\n        uint totalCost, \r\n        uint timestamp\r\n    );\r\n\r\n    uint public nextTradeId;\r\n\r\n    constructor() {\r\n        admin = msg.sender;\r\n    }\r\n\r\n    modifier onlyAdmin() {\r\n        require(admin == msg.sender, \"Only the admin can call this function!\");\r\n        _;\r\n    }\r\n\r\n    modifier validAmount(uint _amount) {\r\n        require(_amount > 0, \"The number of tokens to trade must be greater than 0\");\r\n        _;\r\n    }\r\n\r\n    modifier onlyAllowedTokens(bytes32 _symbol) {\r\n        // check in the tokens mapping if the _symbol is a valid token by validating if the tokenAddress of the _symbol is different than the 0 address\r\n        // If the _symbol address in the tokens mappings is equals to the 0 address it means that that token is not an allowed token\r\n        require(tokens[_symbol].tokenAddress != address(0), \"The token is not an allowed token, contact the adminsitrator\");\r\n        _;\r\n    }\r\n\r\n    modifier tokenIsNotDai(bytes32 _symbol) {\r\n        require(_symbol != DAI, \"DAI Token can't be traded, reverting operation\");\r\n        _;\r\n    }\r\n\r\n    function addToken(bytes32 _symbol, address _tokenAddress) external onlyAdmin() {\r\n        tokens[_symbol] = Token(_symbol,_tokenAddress);\r\n        tokenList.push(_symbol);\r\n    }\r\n\r\n    function deposit(bytes32 _symbol, uint _amount) external onlyAllowedTokens(_symbol) {\r\n        IERC20(tokens[_symbol].tokenAddress).transferFrom(msg.sender, address(this), _amount);\r\n        tokenBalances[msg.sender][_symbol] = tokenBalances[msg.sender][_symbol].add(_amount);\r\n\r\n        // Update the total DEX Balance of tokens when a user Deposits tokens\r\n        tokenBalances[address(this)][_symbol] = tokenBalances[address(this)][_symbol].add(_amount);\r\n    }\r\n\r\n    function withdraw(bytes32 _symbol, uint _amount) external onlyAllowedTokens(_symbol) {\r\n        require(_amount <= tokenBalances[msg.sender][_symbol] , \"Not enough balance, check that you have enough balance of the token that you are trying to withdraw\");\r\n        // Uodate user's token balance before transfering the tokens - Prevent reentrancy attacks\r\n        tokenBalances[msg.sender][_symbol] = tokenBalances[msg.sender][_symbol].sub(_amount);\r\n        IERC20(tokens[_symbol].tokenAddress).transfer(msg.sender,_amount);\r\n\r\n        // Update the total DEX Balance of tokens when a user Withdraws tokens\r\n        tokenBalances[address(this)][_symbol] = tokenBalances[address(this)][_symbol].sub(_amount);\r\n    }\r\n\r\n    function createLimitOrder(bytes32 _symbol, uint _amount, uint _price, OrderType _orderType) external validAmount(_amount) onlyAllowedTokens(_symbol) tokenIsNotDai(_symbol) {\r\n        if(_orderType == OrderType.SELL) {\r\n            require(tokenBalances[msg.sender][_symbol] >= _amount, \"There is not enough Tokens in the balance to create a SELL Order\");\r\n        } else {\r\n            require(tokenBalances[msg.sender][DAI] >= _amount.mul(_price), \"There is not enough DAI Tokens in the balance to create a BUY Order\");\r\n        }\r\n\r\n        Order[] storage orders = orderBook[_symbol][_orderType];\r\n        orders.push(Order(nextOrderId,_orderType,msg.sender,_symbol,_amount,0,_price,block.timestamp));\r\n        \r\n        // bubble sort algorithm to sort the new Order properly in the Order[] orders array\r\n            // If it's a BUY order, the highest prices go first\r\n            // If it's a SELL order, the lowest prices go first\r\n        uint i = (orders.length > 0 ? orders.length -1 : 0);\r\n        while(i > 0) {\r\n            if(orders[i].orderType == OrderType.BUY && orders[i-1].price > orders[i].price) {\r\n                break;\r\n            }\r\n            if(orders[i].orderType == OrderType.SELL && orders[i-1].price < orders[i].price) {\r\n                break;\r\n            }\r\n            // If any of the above conditions was met, that means that the order at the left is greater and is required to swap the orders to sort the new order!\r\n            Order memory order = orders[i-1];   // Store in a temporary order the order at the left (i-1)\r\n            orders[i-1] = orders[i];    // Swap the order at the left for the new order (the new order will always be the order at the i index)\r\n            orders[i] = order;  // After the new order has been re-order at the left, now assign the order that was at the left onto the current position\r\n\r\n            i = i.sub(1);\r\n        }\r\n        nextOrderId = nextOrderId.add(1);\r\n    }\r\n\r\n    function createMarketOrder(bytes32 _symbol, uint _amount, OrderType _orderType) external validAmount(_amount) onlyAllowedTokens(_symbol) tokenIsNotDai(_symbol) {\r\n        if(_orderType == OrderType.SELL) {\r\n            require(_amount <= tokenBalances[msg.sender][_symbol], \"There is not enough Tokens in your balance, deposit more\");\r\n        }\r\n        \r\n        // Create a pointer to the opposite OrderType of the Market Order\r\n        Order[] storage orders = orderBook[_symbol][(_orderType == OrderType.SELL ? OrderType.BUY : OrderType.SELL)];\r\n\r\n        // Algorithm to fill Market Orders\r\n        uint remaining = _amount;\r\n        uint i = 0;\r\n        while(i < orders.length && remaining > 0) {\r\n            uint available = orders[i].amount - orders[i].filled;\r\n            uint matched = (remaining > available ? available : remaining);\r\n            remaining = remaining.sub(matched);\r\n            orders[i].filled = orders[i].filled.add(matched);\r\n\r\n            if(_orderType == OrderType.SELL) {\r\n                // For the user that created the Marker Order - userInitiator\r\n                tokenBalances[msg.sender][_symbol] = tokenBalances[msg.sender][_symbol].sub(matched);\r\n                tokenBalances[msg.sender][DAI] = tokenBalances[msg.sender][DAI].add(matched.mul(orders[i].price));\r\n                // For the user that created the Limit Order - userFill\r\n                tokenBalances[orders[i].trader][_symbol] = tokenBalances[orders[i].trader][_symbol].add(matched);\r\n                tokenBalances[orders[i].trader][DAI] = tokenBalances[orders[i].trader][DAI].sub(matched.mul(orders[i].price));\r\n            } else {    // If the Market Order is a BUY Order\r\n                // Validate that the Buyer (the userInitiation - the one who crates the Market Order) has enough DAI to pay for the requested amount of Tokens\r\n                require(tokenBalances[msg.sender][DAI] >= _amount.mul(orders[i].price), \"The user does not have enough DAI to buy the requested amount of tokens\");\r\n                \r\n                // For the user that created the Marker Order - userInitiator\r\n                tokenBalances[msg.sender][_symbol] = tokenBalances[msg.sender][_symbol].add(matched);\r\n                tokenBalances[msg.sender][DAI] = tokenBalances[msg.sender][DAI].sub(matched.mul(orders[i].price));\r\n                // For the user that created the Limit Order - userFill\r\n                tokenBalances[orders[i].trader][_symbol] = tokenBalances[orders[i].trader][_symbol].sub(matched);\r\n                tokenBalances[orders[i].trader][DAI] = tokenBalances[orders[i].trader][DAI].add(matched.mul(orders[i].price));\r\n            }\r\n            // Trade event should be emitted after the tokenBalances were updated, if an error occurs while updating the balances, the entire transaction must be reverted, and that means that the Trade was actually not executed!\r\n            emit Trade(nextTradeId, orders[i].orderId, orders[i].symbol, orders[i].orderType, msg.sender, orders[i].trader, matched, orders[i].price, (orders[i].price.mul(matched)), block.timestamp);\r\n            \r\n            nextTradeId = nextTradeId.add(1);\r\n            i = i.add(1);\r\n        }\r\n\r\n        // Algorithm to clean up orders that have been totally filled from the Order Book\r\n        i = 0;\r\n        while(i < orders.length){\r\n            if(orders[i].amount == orders[i].filled) {\r\n                for(uint j = i; j < orders.length -1; j++) {\r\n                    orders[j] = orders[j + 1];\r\n                }\r\n                orders.pop();\r\n                continue;\r\n            }\r\n            i = i.add(1);\r\n        }\r\n    }\r\n\r\n    function getOrders(bytes32 _symbol, OrderType _orderType) external view returns(Order[] memory) {\r\n        return orderBook[_symbol][_orderType];\r\n    }\r\n\r\n    function getTokens() external view returns(Token[] memory) {\r\n        Token[] memory _tokens = new Token[](tokenList.length);\r\n        for(uint i = 0; i < tokenList.length; i++) {\r\n            // tokenList[i] gives access to the symbol = a bytes32 variable\r\n            _tokens[i] = Token(\r\n                tokens[tokenList[i]].symbol,\r\n                tokens[tokenList[i]].tokenAddress\r\n                );\r\n        }\r\n        return _tokens;\r\n    }\r\n\r\n    function getTotalTokensInDex(bytes32 _symbol) external view returns(uint) {\r\n        return tokenBalances[address(this)][_symbol];\r\n    }\r\n    \r\n}",
  "sourcePath": "/mnt/c/pr0/blockchain-projects/DEX-for-ERC20-Tokens/contracts/DEX.sol",
  "compiler": {
    "name": "solc",
    "version": "0.8.11+commit.d7f03943.Emscripten.clang"
  },
  "schemaVersion": "3.4.4",
  "updatedAt": "2022-07-04T16:56:17.414Z",
  "networkType": "ethereum",
  "devdoc": {
    "kind": "dev",
    "methods": {},
    "version": 1
  },
  "userdoc": {
    "kind": "user",
    "methods": {},
    "version": 1
  }
}