{
  "contractName": "DEX",
  "abi": [
    {
      "inputs": [],
      "stateMutability": "nonpayable",
      "type": "constructor"
    },
    {
      "anonymous": false,
      "inputs": [
        {
          "indexed": true,
          "internalType": "uint256",
          "name": "tradeId",
          "type": "uint256"
        },
        {
          "indexed": false,
          "internalType": "uint256",
          "name": "orderId",
          "type": "uint256"
        },
        {
          "indexed": false,
          "internalType": "bytes32",
          "name": "tokenSymbol",
          "type": "bytes32"
        },
        {
          "indexed": false,
          "internalType": "enum DEX.OrderType",
          "name": "_orderType",
          "type": "uint8"
        },
        {
          "indexed": true,
          "internalType": "address",
          "name": "userInitiator",
          "type": "address"
        },
        {
          "indexed": true,
          "internalType": "address",
          "name": "userFill",
          "type": "address"
        },
        {
          "indexed": false,
          "internalType": "uint256",
          "name": "tokenAmount",
          "type": "uint256"
        },
        {
          "indexed": false,
          "internalType": "uint256",
          "name": "pricePerToken",
          "type": "uint256"
        },
        {
          "indexed": false,
          "internalType": "uint256",
          "name": "totalCost",
          "type": "uint256"
        },
        {
          "indexed": false,
          "internalType": "uint256",
          "name": "timestamp",
          "type": "uint256"
        }
      ],
      "name": "Trade",
      "type": "event"
    },
    {
      "inputs": [],
      "name": "admin",
      "outputs": [
        {
          "internalType": "address",
          "name": "",
          "type": "address"
        }
      ],
      "stateMutability": "view",
      "type": "function"
    },
    {
      "inputs": [],
      "name": "nextTradeId",
      "outputs": [
        {
          "internalType": "uint256",
          "name": "",
          "type": "uint256"
        }
      ],
      "stateMutability": "view",
      "type": "function"
    },
    {
      "inputs": [
        {
          "internalType": "bytes32",
          "name": "",
          "type": "bytes32"
        },
        {
          "internalType": "enum DEX.OrderType",
          "name": "",
          "type": "uint8"
        },
        {
          "internalType": "uint256",
          "name": "",
          "type": "uint256"
        }
      ],
      "name": "orderBook",
      "outputs": [
        {
          "internalType": "uint256",
          "name": "orderId",
          "type": "uint256"
        },
        {
          "internalType": "enum DEX.OrderType",
          "name": "orderType",
          "type": "uint8"
        },
        {
          "internalType": "address",
          "name": "trader",
          "type": "address"
        },
        {
          "internalType": "bytes32",
          "name": "symbol",
          "type": "bytes32"
        },
        {
          "internalType": "uint256",
          "name": "amount",
          "type": "uint256"
        },
        {
          "internalType": "uint256",
          "name": "filled",
          "type": "uint256"
        },
        {
          "internalType": "uint256",
          "name": "price",
          "type": "uint256"
        },
        {
          "internalType": "uint256",
          "name": "date",
          "type": "uint256"
        }
      ],
      "stateMutability": "view",
      "type": "function"
    },
    {
      "inputs": [
        {
          "internalType": "uint256",
          "name": "",
          "type": "uint256"
        }
      ],
      "name": "tokenList",
      "outputs": [
        {
          "internalType": "bytes32",
          "name": "",
          "type": "bytes32"
        }
      ],
      "stateMutability": "view",
      "type": "function"
    },
    {
      "inputs": [
        {
          "internalType": "bytes32",
          "name": "_symbol",
          "type": "bytes32"
        },
        {
          "internalType": "address",
          "name": "_tokenAddress",
          "type": "address"
        }
      ],
      "name": "addToken",
      "outputs": [],
      "stateMutability": "nonpayable",
      "type": "function"
    },
    {
      "inputs": [
        {
          "internalType": "bytes32",
          "name": "_symbol",
          "type": "bytes32"
        },
        {
          "internalType": "uint256",
          "name": "_amount",
          "type": "uint256"
        }
      ],
      "name": "deposit",
      "outputs": [],
      "stateMutability": "nonpayable",
      "type": "function"
    },
    {
      "inputs": [
        {
          "internalType": "bytes32",
          "name": "_symbol",
          "type": "bytes32"
        },
        {
          "internalType": "uint256",
          "name": "_amount",
          "type": "uint256"
        }
      ],
      "name": "withdraw",
      "outputs": [],
      "stateMutability": "nonpayable",
      "type": "function"
    },
    {
      "inputs": [
        {
          "internalType": "bytes32",
          "name": "_symbol",
          "type": "bytes32"
        },
        {
          "internalType": "uint256",
          "name": "_amount",
          "type": "uint256"
        },
        {
          "internalType": "uint256",
          "name": "_price",
          "type": "uint256"
        },
        {
          "internalType": "enum DEX.OrderType",
          "name": "_orderType",
          "type": "uint8"
        }
      ],
      "name": "createLimitOrder",
      "outputs": [],
      "stateMutability": "nonpayable",
      "type": "function"
    },
    {
      "inputs": [
        {
          "internalType": "bytes32",
          "name": "_symbol",
          "type": "bytes32"
        },
        {
          "internalType": "uint256",
          "name": "_amount",
          "type": "uint256"
        },
        {
          "internalType": "enum DEX.OrderType",
          "name": "_orderType",
          "type": "uint8"
        }
      ],
      "name": "createMarketOrder",
      "outputs": [],
      "stateMutability": "nonpayable",
      "type": "function"
    },
    {
      "inputs": [
        {
          "internalType": "bytes32",
          "name": "_symbol",
          "type": "bytes32"
        },
        {
          "internalType": "enum DEX.OrderType",
          "name": "_orderType",
          "type": "uint8"
        }
      ],
      "name": "getOrders",
      "outputs": [
        {
          "components": [
            {
              "internalType": "uint256",
              "name": "orderId",
              "type": "uint256"
            },
            {
              "internalType": "enum DEX.OrderType",
              "name": "orderType",
              "type": "uint8"
            },
            {
              "internalType": "address",
              "name": "trader",
              "type": "address"
            },
            {
              "internalType": "bytes32",
              "name": "symbol",
              "type": "bytes32"
            },
            {
              "internalType": "uint256",
              "name": "amount",
              "type": "uint256"
            },
            {
              "internalType": "uint256",
              "name": "filled",
              "type": "uint256"
            },
            {
              "internalType": "uint256",
              "name": "price",
              "type": "uint256"
            },
            {
              "internalType": "uint256",
              "name": "date",
              "type": "uint256"
            }
          ],
          "internalType": "struct DEX.Order[]",
          "name": "",
          "type": "tuple[]"
        }
      ],
      "stateMutability": "view",
      "type": "function"
    },
    {
      "inputs": [],
      "name": "getTokens",
      "outputs": [
        {
          "components": [
            {
              "internalType": "bytes32",
              "name": "symbol",
              "type": "bytes32"
            },
            {
              "internalType": "address",
              "name": "tokenAddress",
              "type": "address"
            }
          ],
          "internalType": "struct DEX.Token[]",
          "name": "",
          "type": "tuple[]"
        }
      ],
      "stateMutability": "view",
      "type": "function"
    }
  ],
  "bytecode": "0x608060405234801561001057600080fd5b5033600560006101000a81548173ffffffffffffffffffffffffffffffffffffffff021916908373ffffffffffffffffffffffffffffffffffffffff16021790555061398b806100616000396000f3fe608060405234801561001057600080fd5b50600436106100a95760003560e01c80638c29bec0116100715780638c29bec0146101505780639776aacf146101875780639ead7222146101a3578063aa6ca808146101d3578063d9c0c950146101f1578063f851a4401461020d576100a9565b8063040cf020146100ae5780631de26e16146100ca57806346e9658b146100e65780637f2c624614610116578063813ad08314610132575b600080fd5b6100c860048036038101906100c3919061293b565b61022b565b005b6100e460048036038101906100df919061293b565b6104d4565b005b61010060048036038101906100fb91906129a0565b6106ec565b60405161010d9190612c08565b60405180910390f35b610130600480360381019061012b9190612c2a565b610862565b005b61013a611b4b565b6040516101479190612c8c565b60405180910390f35b61016a60048036038101906101659190612ca7565b611b51565b60405161017e989796959493929190612d27565b60405180910390f35b6101a1600480360381019061019c9190612dd1565b611bf0565b005b6101bd60048036038101906101b89190612e11565b611d3e565b6040516101ca9190612e3e565b60405180910390f35b6101db611d62565b6040516101e89190612f37565b60405180910390f35b61020b60048036038101906102069190612f59565b611ebb565b005b61021561282f565b6040516102229190612fc0565b60405180910390f35b81600073ffffffffffffffffffffffffffffffffffffffff1660008083815260200190815260200160002060010160009054906101000a900473ffffffffffffffffffffffffffffffffffffffff1673ffffffffffffffffffffffffffffffffffffffff1614156102d1576040517f08c379a00000000000000000000000000000000000000000000000000000000081526004016102c89061305e565b60405180910390fd5b81600260003373ffffffffffffffffffffffffffffffffffffffff1673ffffffffffffffffffffffffffffffffffffffff1681526020019081526020016000206000858152602001908152602001600020541115610364576040517f08c379a000000000000000000000000000000000000000000000000000000000815260040161035b9061313c565b60405180910390fd5b6103c782600260003373ffffffffffffffffffffffffffffffffffffffff1673ffffffffffffffffffffffffffffffffffffffff16815260200190815260200160002060008681526020019081526020016000205461285590919063ffffffff16565b600260003373ffffffffffffffffffffffffffffffffffffffff1673ffffffffffffffffffffffffffffffffffffffff16815260200190815260200160002060008581526020019081526020016000208190555060008084815260200190815260200160002060010160009054906101000a900473ffffffffffffffffffffffffffffffffffffffff1673ffffffffffffffffffffffffffffffffffffffff1663a9059cbb33846040518363ffffffff1660e01b815260040161048b92919061315c565b6020604051808303816000875af11580156104aa573d6000803e3d6000fd5b505050506040513d601f19601f820116820180604052508101906104ce91906131bd565b50505050565b81600073ffffffffffffffffffffffffffffffffffffffff1660008083815260200190815260200160002060010160009054906101000a900473ffffffffffffffffffffffffffffffffffffffff1673ffffffffffffffffffffffffffffffffffffffff16141561057a576040517f08c379a00000000000000000000000000000000000000000000000000000000081526004016105719061305e565b60405180910390fd5b60008084815260200190815260200160002060010160009054906101000a900473ffffffffffffffffffffffffffffffffffffffff1673ffffffffffffffffffffffffffffffffffffffff166323b872dd3330856040518463ffffffff1660e01b81526004016105ec939291906131ea565b6020604051808303816000875af115801561060b573d6000803e3d6000fd5b505050506040513d601f19601f8201168201806040525081019061062f91906131bd565b5061069382600260003373ffffffffffffffffffffffffffffffffffffffff1673ffffffffffffffffffffffffffffffffffffffff16815260200190815260200160002060008681526020019081526020016000205461286b90919063ffffffff16565b600260003373ffffffffffffffffffffffffffffffffffffffff1673ffffffffffffffffffffffffffffffffffffffff168152602001908152602001600020600085815260200190815260200160002081905550505050565b606060036000848152602001908152602001600020600083600181111561071657610715612a1b565b5b600181111561072857610727612a1b565b5b8152602001908152602001600020805480602002602001604051908101604052809291908181526020016000905b82821015610856578382906000526020600020906007020160405180610100016040529081600082015481526020016001820160009054906101000a900460ff1660018111156107a9576107a8612a1b565b5b60018111156107bb576107ba612a1b565b5b81526020016001820160019054906101000a900473ffffffffffffffffffffffffffffffffffffffff1673ffffffffffffffffffffffffffffffffffffffff1673ffffffffffffffffffffffffffffffffffffffff1681526020016002820154815260200160038201548152602001600482015481526020016005820154815260200160068201548152505081526020019060010190610756565b50505050905092915050565b8160008110156108a7576040517f08c379a000000000000000000000000000000000000000000000000000000000815260040161089e90613293565b60405180910390fd5b83600073ffffffffffffffffffffffffffffffffffffffff1660008083815260200190815260200160002060010160009054906101000a900473ffffffffffffffffffffffffffffffffffffffff1673ffffffffffffffffffffffffffffffffffffffff16141561094d576040517f08c379a00000000000000000000000000000000000000000000000000000000081526004016109449061305e565b60405180910390fd5b847f44414900000000000000000000000000000000000000000000000000000000008114156109b1576040517f08c379a00000000000000000000000000000000000000000000000000000000081526004016109a890613325565b60405180910390fd5b6001808111156109c4576109c3612a1b565b5b8460018111156109d7576109d6612a1b565b5b1415610a7557600260003373ffffffffffffffffffffffffffffffffffffffff1673ffffffffffffffffffffffffffffffffffffffff168152602001908152602001600020600087815260200190815260200160002054851115610a70576040517f08c379a0000000000000000000000000000000000000000000000000000000008152600401610a67906133b7565b60405180910390fd5b610b29565b600260003373ffffffffffffffffffffffffffffffffffffffff1673ffffffffffffffffffffffffffffffffffffffff16815260200190815260200160002060007f4441490000000000000000000000000000000000000000000000000000000000815260200190815260200160002054851115610b28576040517f08c379a0000000000000000000000000000000000000000000000000000000008152600401610b1f90613449565b60405180910390fd5b5b6000600360008881526020019081526020016000206000600180811115610b5357610b52612a1b565b5b876001811115610b6657610b65612a1b565b5b14610b72576001610b75565b60005b6001811115610b8757610b86612a1b565b5b6001811115610b9957610b98612a1b565b5b81526020019081526020016000209050600086905060005b60018380549050610bc29190613498565b81108015610bd05750600082115b156118bb576000838281548110610bea57610be96134cc565b5b906000526020600020906007020160040154848381548110610c0f57610c0e6134cc565b5b906000526020600020906007020160030154610c2b9190613498565b90506000818411610c3c5783610c3e565b815b9050610c53818561285590919063ffffffff16565b9350610c8c81868581548110610c6c57610c6b6134cc565b5b90600052602060002090600702016004015461286b90919063ffffffff16565b858481548110610c9f57610c9e6134cc565b5b906000526020600020906007020160040181905550848381548110610cc757610cc66134cc565b5b906000526020600020906007020160010160019054906101000a900473ffffffffffffffffffffffffffffffffffffffff1673ffffffffffffffffffffffffffffffffffffffff163373ffffffffffffffffffffffffffffffffffffffff166006547f67b5a1cffc6f430758db4127f49534d3aaf2c08b9ac9a53e3e291243806962e2888781548110610d5d57610d5c6134cc565b5b906000526020600020906007020160000154898881548110610d8257610d816134cc565b5b9060005260206000209060070201600201548a8981548110610da757610da66134cc565b5b906000526020600020906007020160010160009054906101000a900460ff16878c8b81548110610dda57610dd96134cc565b5b906000526020600020906007020160050154610e238a8f8e81548110610e0357610e026134cc565b5b90600052602060002090600702016005015461288190919063ffffffff16565b42604051610e3797969594939291906134fb565b60405180910390a4600180811115610e5257610e51612a1b565b5b896001811115610e6557610e64612a1b565b5b141561134857610ece81600260003373ffffffffffffffffffffffffffffffffffffffff1673ffffffffffffffffffffffffffffffffffffffff16815260200190815260200160002060008e81526020019081526020016000205461285590919063ffffffff16565b600260003373ffffffffffffffffffffffffffffffffffffffff1673ffffffffffffffffffffffffffffffffffffffff16815260200190815260200160002060008d815260200190815260200160002081905550610fdb610f5c868581548110610f3b57610f3a6134cc565b5b9060005260206000209060070201600501548361288190919063ffffffff16565b600260003373ffffffffffffffffffffffffffffffffffffffff1673ffffffffffffffffffffffffffffffffffffffff16815260200190815260200160002060007f444149000000000000000000000000000000000000000000000000000000000081526020019081526020016000205461286b90919063ffffffff16565b600260003373ffffffffffffffffffffffffffffffffffffffff1673ffffffffffffffffffffffffffffffffffffffff16815260200190815260200160002060007f44414900000000000000000000000000000000000000000000000000000000008152602001908152602001600020819055506110f6816002600088878154811061106a576110696134cc565b5b906000526020600020906007020160010160019054906101000a900473ffffffffffffffffffffffffffffffffffffffff1673ffffffffffffffffffffffffffffffffffffffff1673ffffffffffffffffffffffffffffffffffffffff16815260200190815260200160002060008e81526020019081526020016000205461286b90919063ffffffff16565b6002600087868154811061110d5761110c6134cc565b5b906000526020600020906007020160010160019054906101000a900473ffffffffffffffffffffffffffffffffffffffff1673ffffffffffffffffffffffffffffffffffffffff1673ffffffffffffffffffffffffffffffffffffffff16815260200190815260200160002060008d81526020019081526020016000208190555061128b6111c88685815481106111a7576111a66134cc565b5b9060005260206000209060070201600501548361288190919063ffffffff16565b600260008887815481106111df576111de6134cc565b5b906000526020600020906007020160010160019054906101000a900473ffffffffffffffffffffffffffffffffffffffff1673ffffffffffffffffffffffffffffffffffffffff1673ffffffffffffffffffffffffffffffffffffffff16815260200190815260200160002060007f444149000000000000000000000000000000000000000000000000000000000081526020019081526020016000205461285590919063ffffffff16565b600260008786815481106112a2576112a16134cc565b5b906000526020600020906007020160010160019054906101000a900473ffffffffffffffffffffffffffffffffffffffff1673ffffffffffffffffffffffffffffffffffffffff1673ffffffffffffffffffffffffffffffffffffffff16815260200190815260200160002060007f4441490000000000000000000000000000000000000000000000000000000000815260200190815260200160002081905550611882565b61137f85848154811061135e5761135d6134cc565b5b9060005260206000209060070201600501548b61288190919063ffffffff16565b600260003373ffffffffffffffffffffffffffffffffffffffff1673ffffffffffffffffffffffffffffffffffffffff16815260200190815260200160002060007f44414900000000000000000000000000000000000000000000000000000000008152602001908152602001600020541015611431576040517f08c379a000000000000000000000000000000000000000000000000000000000815260040161142890613602565b60405180910390fd5b61149481600260003373ffffffffffffffffffffffffffffffffffffffff1673ffffffffffffffffffffffffffffffffffffffff16815260200190815260200160002060008e81526020019081526020016000205461286b90919063ffffffff16565b600260003373ffffffffffffffffffffffffffffffffffffffff1673ffffffffffffffffffffffffffffffffffffffff16815260200190815260200160002060008d8152602001908152602001600020819055506115a1611522868581548110611501576115006134cc565b5b9060005260206000209060070201600501548361288190919063ffffffff16565b600260003373ffffffffffffffffffffffffffffffffffffffff1673ffffffffffffffffffffffffffffffffffffffff16815260200190815260200160002060007f444149000000000000000000000000000000000000000000000000000000000081526020019081526020016000205461285590919063ffffffff16565b600260003373ffffffffffffffffffffffffffffffffffffffff1673ffffffffffffffffffffffffffffffffffffffff16815260200190815260200160002060007f44414900000000000000000000000000000000000000000000000000000000008152602001908152602001600020819055506116bc81600260008887815481106116305761162f6134cc565b5b906000526020600020906007020160010160019054906101000a900473ffffffffffffffffffffffffffffffffffffffff1673ffffffffffffffffffffffffffffffffffffffff1673ffffffffffffffffffffffffffffffffffffffff16815260200190815260200160002060008e81526020019081526020016000205461285590919063ffffffff16565b600260008786815481106116d3576116d26134cc565b5b906000526020600020906007020160010160019054906101000a900473ffffffffffffffffffffffffffffffffffffffff1673ffffffffffffffffffffffffffffffffffffffff1673ffffffffffffffffffffffffffffffffffffffff16815260200190815260200160002060008d81526020019081526020016000208190555061180d61178e86858154811061176d5761176c6134cc565b5b9060005260206000209060070201600501548361288190919063ffffffff16565b600260003373ffffffffffffffffffffffffffffffffffffffff1673ffffffffffffffffffffffffffffffffffffffff16815260200190815260200160002060007f444149000000000000000000000000000000000000000000000000000000000081526020019081526020016000205461286b90919063ffffffff16565b600260003373ffffffffffffffffffffffffffffffffffffffff1673ffffffffffffffffffffffffffffffffffffffff16815260200190815260200160002060007f44414900000000000000000000000000000000000000000000000000000000008152602001908152602001600020819055505b611898600160065461286b90919063ffffffff16565b6006819055506118b260018461286b90919063ffffffff16565b92505050610bb1565b600090505b600183805490506118d19190613498565b811015611b40578281815481106118eb576118ea6134cc565b5b9060005260206000209060070201600401548382815481106119105761190f6134cc565b5b9060005260206000209060070201600301541415611b255760008190505b6001848054905061193f9190613498565b811015611a8a57836001826119549190613622565b81548110611965576119646134cc565b5b9060005260206000209060070201848281548110611986576119856134cc565b5b9060005260206000209060070201600082015481600001556001820160009054906101000a900460ff168160010160006101000a81548160ff021916908360018111156119d6576119d5612a1b565b5b02179055506001820160019054906101000a900473ffffffffffffffffffffffffffffffffffffffff168160010160016101000a81548173ffffffffffffffffffffffffffffffffffffffff021916908373ffffffffffffffffffffffffffffffffffffffff16021790555060028201548160020155600382015481600301556004820154816004015560058201548160050155600682015481600601559050508080611a8290613678565b91505061192e565b5082805480611a9c57611a9b6136c1565b5b60019003818190600052602060002090600702016000808201600090556001820160006101000a81549060ff02191690556001820160016101000a81549073ffffffffffffffffffffffffffffffffffffffff021916905560028201600090556003820160009055600482016000905560058201600090556006820160009055505090556118c0565b611b3960018261286b90919063ffffffff16565b90506118c0565b505050505050505050565b60065481565b60036020528260005260406000206020528160005260406000208181548110611b7957600080fd5b906000526020600020906007020160009250925050508060000154908060010160009054906101000a900460ff16908060010160019054906101000a900473ffffffffffffffffffffffffffffffffffffffff16908060020154908060030154908060040154908060050154908060060154905088565b3373ffffffffffffffffffffffffffffffffffffffff16600560009054906101000a900473ffffffffffffffffffffffffffffffffffffffff1673ffffffffffffffffffffffffffffffffffffffff1614611c80576040517f08c379a0000000000000000000000000000000000000000000000000000000008152600401611c7790613762565b60405180910390fd5b60405180604001604052808381526020018273ffffffffffffffffffffffffffffffffffffffff168152506000808481526020019081526020016000206000820151816000015560208201518160010160006101000a81548173ffffffffffffffffffffffffffffffffffffffff021916908373ffffffffffffffffffffffffffffffffffffffff16021790555090505060018290806001815401808255809150506001900390600052602060002001600090919091909150555050565b60018181548110611d4e57600080fd5b906000526020600020016000915090505481565b6060600060018054905067ffffffffffffffff811115611d8557611d84613782565b5b604051908082528060200260200182016040528015611dbe57816020015b611dab612897565b815260200190600190039081611da35790505b50905060005b600180549050811015611eb357604051806040016040528060008060018581548110611df357611df26134cc565b5b9060005260206000200154815260200190815260200160002060000154815260200160008060018581548110611e2c57611e2b6134cc565b5b9060005260206000200154815260200190815260200160002060010160009054906101000a900473ffffffffffffffffffffffffffffffffffffffff1673ffffffffffffffffffffffffffffffffffffffff16815250828281518110611e9557611e946134cc565b5b60200260200101819052508080611eab90613678565b915050611dc4565b508091505090565b826000811015611f00576040517f08c379a0000000000000000000000000000000000000000000000000000000008152600401611ef790613293565b60405180910390fd5b84600073ffffffffffffffffffffffffffffffffffffffff1660008083815260200190815260200160002060010160009054906101000a900473ffffffffffffffffffffffffffffffffffffffff1673ffffffffffffffffffffffffffffffffffffffff161415611fa6576040517f08c379a0000000000000000000000000000000000000000000000000000000008152600401611f9d9061305e565b60405180910390fd5b857f444149000000000000000000000000000000000000000000000000000000000081141561200a576040517f08c379a000000000000000000000000000000000000000000000000000000000815260040161200190613325565b60405180910390fd5b60018081111561201d5761201c612a1b565b5b8460018111156120305761202f612a1b565b5b14156120ce5785600260003373ffffffffffffffffffffffffffffffffffffffff1673ffffffffffffffffffffffffffffffffffffffff16815260200190815260200160002060008981526020019081526020016000205410156120c9576040517f08c379a00000000000000000000000000000000000000000000000000000000081526004016120c090613823565b60405180910390fd5b612194565b6120e1858761288190919063ffffffff16565b600260003373ffffffffffffffffffffffffffffffffffffffff1673ffffffffffffffffffffffffffffffffffffffff16815260200190815260200160002060007f44414900000000000000000000000000000000000000000000000000000000008152602001908152602001600020541015612193576040517f08c379a000000000000000000000000000000000000000000000000000000000815260040161218a906138db565b60405180910390fd5b5b60006003600089815260200190815260200160002060008660018111156121be576121bd612a1b565b5b60018111156121d0576121cf612a1b565b5b8152602001908152602001600020905080604051806101000160405280600454815260200187600181111561220857612207612a1b565b5b81526020013373ffffffffffffffffffffffffffffffffffffffff1681526020018a8152602001898152602001600081526020018881526020014281525090806001815401808255809150506001900390600052602060002090600702016000909190919091506000820151816000015560208201518160010160006101000a81548160ff021916908360018111156122a4576122a3612a1b565b5b021790555060408201518160010160016101000a81548173ffffffffffffffffffffffffffffffffffffffff021916908373ffffffffffffffffffffffffffffffffffffffff160217905550606082015181600201556080820151816003015560a0820151816004015560c0820151816005015560e08201518160060155505060008082805490501161233857600061234a565b600182805490506123499190613498565b5b90505b6000811115612808576000600181111561236a57612369612a1b565b5b82828154811061237d5761237c6134cc565b5b906000526020600020906007020160010160009054906101000a900460ff1660018111156123ae576123ad612a1b565b5b14801561240e57508181815481106123c9576123c86134cc565b5b906000526020600020906007020160050154826001836123e99190613498565b815481106123fa576123f96134cc565b5b906000526020600020906007020160050154115b1561241857612808565b60018081111561242b5761242a612a1b565b5b82828154811061243e5761243d6134cc565b5b906000526020600020906007020160010160009054906101000a900460ff16600181111561246f5761246e612a1b565b5b1480156124cf575081818154811061248a576124896134cc565b5b906000526020600020906007020160050154826001836124aa9190613498565b815481106124bb576124ba6134cc565b5b906000526020600020906007020160050154105b156124d957612808565b6000826001836124e99190613498565b815481106124fa576124f96134cc565b5b906000526020600020906007020160405180610100016040529081600082015481526020016001820160009054906101000a900460ff16600181111561254357612542612a1b565b5b600181111561255557612554612a1b565b5b81526020016001820160019054906101000a900473ffffffffffffffffffffffffffffffffffffffff1673ffffffffffffffffffffffffffffffffffffffff1673ffffffffffffffffffffffffffffffffffffffff1681526020016002820154815260200160038201548152602001600482015481526020016005820154815260200160068201548152505090508282815481106125f6576125f56134cc565b5b9060005260206000209060070201836001846126129190613498565b81548110612623576126226134cc565b5b9060005260206000209060070201600082015481600001556001820160009054906101000a900460ff168160010160006101000a81548160ff0219169083600181111561267357612672612a1b565b5b02179055506001820160019054906101000a900473ffffffffffffffffffffffffffffffffffffffff168160010160016101000a81548173ffffffffffffffffffffffffffffffffffffffff021916908373ffffffffffffffffffffffffffffffffffffffff160217905550600282015481600201556003820154816003015560048201548160040155600582015481600501556006820154816006015590505080838381548110612728576127276134cc565b5b90600052602060002090600702016000820151816000015560208201518160010160006101000a81548160ff0219169083600181111561276b5761276a612a1b565b5b021790555060408201518160010160016101000a81548173ffffffffffffffffffffffffffffffffffffffff021916908373ffffffffffffffffffffffffffffffffffffffff160217905550606082015181600201556080820151816003015560a0820151816004015560c0820151816005015560e0820151816006015590505061280060018361285590919063ffffffff16565b91505061234d565b61281e600160065461286b90919063ffffffff16565b600481905550505050505050505050565b600560009054906101000a900473ffffffffffffffffffffffffffffffffffffffff1681565b600081836128639190613498565b905092915050565b600081836128799190613622565b905092915050565b6000818361288f91906138fb565b905092915050565b604051806040016040528060008019168152602001600073ffffffffffffffffffffffffffffffffffffffff1681525090565b600080fd5b6000819050919050565b6128e2816128cf565b81146128ed57600080fd5b50565b6000813590506128ff816128d9565b92915050565b6000819050919050565b61291881612905565b811461292357600080fd5b50565b6000813590506129358161290f565b92915050565b60008060408385031215612952576129516128ca565b5b6000612960858286016128f0565b925050602061297185828601612926565b9150509250929050565b6002811061298857600080fd5b50565b60008135905061299a8161297b565b92915050565b600080604083850312156129b7576129b66128ca565b5b60006129c5858286016128f0565b92505060206129d68582860161298b565b9150509250929050565b600081519050919050565b600082825260208201905092915050565b6000819050602082019050919050565b612a1581612905565b82525050565b7f4e487b7100000000000000000000000000000000000000000000000000000000600052602160045260246000fd5b60028110612a5b57612a5a612a1b565b5b50565b6000819050612a6c82612a4a565b919050565b6000612a7c82612a5e565b9050919050565b612a8c81612a71565b82525050565b600073ffffffffffffffffffffffffffffffffffffffff82169050919050565b6000612abd82612a92565b9050919050565b612acd81612ab2565b82525050565b612adc816128cf565b82525050565b61010082016000820151612af96000850182612a0c565b506020820151612b0c6020850182612a83565b506040820151612b1f6040850182612ac4565b506060820151612b326060850182612ad3565b506080820151612b456080850182612a0c565b5060a0820151612b5860a0850182612a0c565b5060c0820151612b6b60c0850182612a0c565b5060e0820151612b7e60e0850182612a0c565b50505050565b6000612b908383612ae2565b6101008301905092915050565b6000602082019050919050565b6000612bb5826129e0565b612bbf81856129eb565b9350612bca836129fc565b8060005b83811015612bfb578151612be28882612b84565b9750612bed83612b9d565b925050600181019050612bce565b5085935050505092915050565b60006020820190508181036000830152612c228184612baa565b905092915050565b600080600060608486031215612c4357612c426128ca565b5b6000612c51868287016128f0565b9350506020612c6286828701612926565b9250506040612c738682870161298b565b9150509250925092565b612c8681612905565b82525050565b6000602082019050612ca16000830184612c7d565b92915050565b600080600060608486031215612cc057612cbf6128ca565b5b6000612cce868287016128f0565b9350506020612cdf8682870161298b565b9250506040612cf086828701612926565b9150509250925092565b612d0381612a71565b82525050565b612d1281612ab2565b82525050565b612d21816128cf565b82525050565b600061010082019050612d3d600083018b612c7d565b612d4a602083018a612cfa565b612d576040830189612d09565b612d646060830188612d18565b612d716080830187612c7d565b612d7e60a0830186612c7d565b612d8b60c0830185612c7d565b612d9860e0830184612c7d565b9998505050505050505050565b612dae81612ab2565b8114612db957600080fd5b50565b600081359050612dcb81612da5565b92915050565b60008060408385031215612de857612de76128ca565b5b6000612df6858286016128f0565b9250506020612e0785828601612dbc565b9150509250929050565b600060208284031215612e2757612e266128ca565b5b6000612e3584828501612926565b91505092915050565b6000602082019050612e536000830184612d18565b92915050565b600081519050919050565b600082825260208201905092915050565b6000819050602082019050919050565b604082016000820151612e9b6000850182612ad3565b506020820151612eae6020850182612ac4565b50505050565b6000612ec08383612e85565b60408301905092915050565b6000602082019050919050565b6000612ee482612e59565b612eee8185612e64565b9350612ef983612e75565b8060005b83811015612f2a578151612f118882612eb4565b9750612f1c83612ecc565b925050600181019050612efd565b5085935050505092915050565b60006020820190508181036000830152612f518184612ed9565b905092915050565b60008060008060808587031215612f7357612f726128ca565b5b6000612f81878288016128f0565b9450506020612f9287828801612926565b9350506040612fa387828801612926565b9250506060612fb48782880161298b565b91505092959194509250565b6000602082019050612fd56000830184612d09565b92915050565b600082825260208201905092915050565b7f54686520746f6b656e206973206e6f7420616e20616c6c6f77656420746f6b6560008201527f6e2c20636f6e74616374207468652061646d696e7369747261746f7221290000602082015250565b6000613048603e83612fdb565b915061305382612fec565b604082019050919050565b600060208201905081810360008301526130778161303b565b9050919050565b7f4e6f7420656e6f7567682062616c616e63652c20636865636b2074686174207960008201527f6f75206861766520656e6f7567682062616c616e6365206f662074686520746f60208201527f6b656e207468617420796f752061726520747279696e6720746f20776974686460408201527f7261770000000000000000000000000000000000000000000000000000000000606082015250565b6000613126606383612fdb565b91506131318261307e565b608082019050919050565b6000602082019050818103600083015261315581613119565b9050919050565b60006040820190506131716000830185612d09565b61317e6020830184612c7d565b9392505050565b60008115159050919050565b61319a81613185565b81146131a557600080fd5b50565b6000815190506131b781613191565b92915050565b6000602082840312156131d3576131d26128ca565b5b60006131e1848285016131a8565b91505092915050565b60006060820190506131ff6000830186612d09565b61320c6020830185612d09565b6132196040830184612c7d565b949350505050565b7f596f752063616e27742073656e642061206e656761746976652076616c75652060008201527f61732074686520616d6f756e7420746f20747261646500000000000000000000602082015250565b600061327d603683612fdb565b915061328882613221565b604082019050919050565b600060208201905081810360008301526132ac81613270565b9050919050565b7f44414920546f6b656e2063616e2774206265207472616465642c20726576657260008201527f74696e67206f7065726174696f6e000000000000000000000000000000000000602082015250565b600061330f602e83612fdb565b915061331a826132b3565b604082019050919050565b6000602082019050818103600083015261333e81613302565b9050919050565b7f5468657265206973206e6f7420656e6f75676820546f6b656e7320696e20796f60008201527f75722062616c616e63652c206465706f736974206d6f72650000000000000000602082015250565b60006133a1603883612fdb565b91506133ac82613345565b604082019050919050565b600060208201905081810360008301526133d081613394565b9050919050565b7f5468657265206973206e6f7420656e6f7567682044414920696e20796f75722060008201527f62616c616e63652c206465706f736974206d6f72650000000000000000000000602082015250565b6000613433603583612fdb565b915061343e826133d7565b604082019050919050565b6000602082019050818103600083015261346281613426565b9050919050565b7f4e487b7100000000000000000000000000000000000000000000000000000000600052601160045260246000fd5b60006134a382612905565b91506134ae83612905565b9250828210156134c1576134c0613469565b5b828203905092915050565b7f4e487b7100000000000000000000000000000000000000000000000000000000600052603260045260246000fd5b600060e082019050613510600083018a612c7d565b61351d6020830189612d18565b61352a6040830188612cfa565b6135376060830187612c7d565b6135446080830186612c7d565b61355160a0830185612c7d565b61355e60c0830184612c7d565b98975050505050505050565b7f546865207573657220646f6573206e6f74206861766520656e6f75676820444160008201527f4920746f20627579207468652072657175657374656420616d6f756e74206f6660208201527f20746f6b656e7300000000000000000000000000000000000000000000000000604082015250565b60006135ec604783612fdb565b91506135f78261356a565b606082019050919050565b6000602082019050818103600083015261361b816135df565b9050919050565b600061362d82612905565b915061363883612905565b9250827fffffffffffffffffffffffffffffffffffffffffffffffffffffffffffffffff0382111561366d5761366c613469565b5b828201905092915050565b600061368382612905565b91507fffffffffffffffffffffffffffffffffffffffffffffffffffffffffffffffff8214156136b6576136b5613469565b5b600182019050919050565b7f4e487b7100000000000000000000000000000000000000000000000000000000600052603160045260246000fd5b7f4f6e6c79207468652061646d696e2063616e2063616c6c20746869732066756e60008201527f6374696f6e210000000000000000000000000000000000000000000000000000602082015250565b600061374c602683612fdb565b9150613757826136f0565b604082019050919050565b6000602082019050818103600083015261377b8161373f565b9050919050565b7f4e487b7100000000000000000000000000000000000000000000000000000000600052604160045260246000fd5b7f5468657265206973206e6f7420656e6f75676820546f6b656e7320696e20746860008201527f652062616c616e636520746f2063726561746520612053454c4c204f72646572602082015250565b600061380d604083612fdb565b9150613818826137b1565b604082019050919050565b6000602082019050818103600083015261383c81613800565b9050919050565b7f5468657265206973206e6f7420656e6f7567682044414920546f6b656e73206960008201527f6e207468652062616c616e636520746f20637265617465206120425559204f7260208201527f6465720000000000000000000000000000000000000000000000000000000000604082015250565b60006138c5604383612fdb565b91506138d082613843565b606082019050919050565b600060208201905081810360008301526138f4816138b8565b9050919050565b600061390682612905565b915061391183612905565b9250817fffffffffffffffffffffffffffffffffffffffffffffffffffffffffffffffff048311821515161561394a57613949613469565b5b82820290509291505056fea264697066735822122074f7d992d3fbf147e3cf618251fad22af0ec0edd0376c997a81caf60905b4c5664736f6c634300080b0033",
  "immutableReferences": {},
  "source": "// SPDX-License-Identifier: GPL-3.0-or-later\r\npragma solidity ^0.8.0;\r\n\r\nimport \"@openzeppelin/contracts/token/ERC20/IERC20.sol\";\r\nimport \"@openzeppelin/contracts/utils/math/SafeMath.sol\";\r\n\r\ncontract DEX {\r\n\r\n    using SafeMath for uint256;\r\n\r\n    struct Token {\r\n        bytes32 symbol;\r\n        address tokenAddress;\r\n    }\r\n\r\n    mapping(bytes32 => Token) tokens;   // This mapping will map the token's symbol to a Token struct instance\r\n    bytes32[] public tokenList;         // Using this tokenList will allow us to know the allowed tokens\r\n\r\n    mapping(address => mapping(bytes32 => uint)) tokenBalances; // This nested mapping will allow us to know how many tokens of what token a user holds in the DEX's contract\r\n\r\n    enum OrderType {\r\n        BUY,\r\n        SELL\r\n    }\r\n\r\n    struct Order {\r\n        uint orderId;\r\n        OrderType orderType;\r\n        address trader;\r\n        bytes32 symbol;\r\n        uint amount;\r\n        uint filled;\r\n        uint price;\r\n        uint date;\r\n    }\r\n\r\n    mapping(bytes32 => mapping(OrderType => Order[])) public orderBook;\r\n\r\n    uint nextOrderId;\r\n    bytes32 constant DAI = bytes32(\"DAI\");\r\n\r\n    address public admin;\r\n\r\n    event Trade(\r\n        uint indexed tradeId, \r\n        uint orderId, \r\n        bytes32 tokenSymbol, \r\n        OrderType _orderType, \r\n        address indexed userInitiator, \r\n        address indexed userFill, \r\n        uint tokenAmount, \r\n        uint pricePerToken, \r\n        uint totalCost, \r\n        uint timestamp\r\n    );\r\n\r\n    uint public nextTradeId;\r\n\r\n    constructor() {\r\n        admin = msg.sender;\r\n    }\r\n\r\n    modifier onlyAdmin() {\r\n        require(admin == msg.sender, \"Only the admin can call this function!\");\r\n        _;\r\n    }\r\n\r\n    modifier validAmount(uint _amount) {\r\n        require(_amount >= 0, \"You can't send a negative value as the amount to trade\");\r\n        _;\r\n    }\r\n\r\n    modifier onlyAllowedTokens(bytes32 _symbol) {\r\n        // check in the tokens mapping if the _symbol is a valid token by validating if the tokenAddress of the _symbol is different than the 0 address\r\n        // If the _symbol address in the tokens mappings is equals to the 0 address it means that that token is not an allowed token\r\n        require(tokens[_symbol].tokenAddress != address(0), \"The token is not an allowed token, contact the adminsitrator!)\");\r\n        _;\r\n    }\r\n\r\n    modifier tokenIsNotDai(bytes32 _symbol) {\r\n        require(_symbol != DAI, \"DAI Token can't be traded, reverting operation\");\r\n        _;\r\n    }\r\n\r\n    function addToken(bytes32 _symbol, address _tokenAddress) external onlyAdmin() {\r\n        tokens[_symbol] = Token(_symbol,_tokenAddress);\r\n        tokenList.push(_symbol);\r\n    }\r\n\r\n    function deposit(bytes32 _symbol, uint _amount) external onlyAllowedTokens(_symbol) {\r\n        IERC20(tokens[_symbol].tokenAddress).transferFrom(msg.sender, address(this), _amount);\r\n        tokenBalances[msg.sender][_symbol] = tokenBalances[msg.sender][_symbol].add(_amount);\r\n    }\r\n\r\n    function withdraw(bytes32 _symbol, uint _amount) external onlyAllowedTokens(_symbol) {\r\n        require(tokenBalances[msg.sender][_symbol] <= _amount, \"Not enough balance, check that you have enough balance of the token that you are trying to withdraw\");\r\n        // Uodate user's token balance before transfering the tokens - Prevent reentrancy attacks\r\n        tokenBalances[msg.sender][_symbol] = tokenBalances[msg.sender][_symbol].sub(_amount);\r\n        IERC20(tokens[_symbol].tokenAddress).transfer(msg.sender,_amount);\r\n    }\r\n\r\n    function createLimitOrder(bytes32 _symbol, uint _amount, uint _price, OrderType _orderType) external validAmount(_amount) onlyAllowedTokens(_symbol) tokenIsNotDai(_symbol) {\r\n        if(_orderType == OrderType.SELL) {\r\n            require(tokenBalances[msg.sender][_symbol] >= _amount, \"There is not enough Tokens in the balance to create a SELL Order\");\r\n        } else {\r\n            require(tokenBalances[msg.sender][DAI] >= _amount.mul(_price), \"There is not enough DAI Tokens in the balance to create a BUY Order\");\r\n        }\r\n\r\n        Order[] storage orders = orderBook[_symbol][_orderType];\r\n        orders.push(Order(nextOrderId,_orderType,msg.sender,_symbol,_amount,0,_price,block.timestamp));\r\n        \r\n        // bubble sort algorithm to sort the new Order properly in the Order[] orders array\r\n            // If it's a BUY order, the highest prices go first\r\n            // If it's a SELL order, the lowest prices go first\r\n        uint i = (orders.length > 0 ? orders.length -1 : 0);\r\n        while(i > 0) {\r\n            if(orders[i].orderType == OrderType.BUY && orders[i-1].price > orders[i].price) {\r\n                break;\r\n            }\r\n            if(orders[i].orderType == OrderType.SELL && orders[i-1].price < orders[i].price) {\r\n                break;\r\n            }\r\n            // If any of the above conditions was met, that means that the order at the left is greater and is required to swap the orders to sort the new order!\r\n            Order memory order = orders[i-1];   // Store in a temporary order the order at the left (i-1)\r\n            orders[i-1] = orders[i];    // Swap the order at the left for the new order (the new order will always be the order at the i index)\r\n            orders[i] = order;  // After the new order has been re-order at the left, now assign the order that was at the left onto the current position\r\n\r\n            i = i.sub(1);\r\n        }\r\n        nextOrderId = nextTradeId.add(1);\r\n    }\r\n\r\n    function createMarketOrder(bytes32 _symbol, uint _amount, OrderType _orderType) external validAmount(_amount) onlyAllowedTokens(_symbol) tokenIsNotDai(_symbol) {\r\n        if(_orderType == OrderType.SELL) {\r\n            require(_amount <= tokenBalances[msg.sender][_symbol], \"There is not enough Tokens in your balance, deposit more\");\r\n        } else {\r\n            require(_amount <= tokenBalances[msg.sender][DAI], \"There is not enough DAI in your balance, deposit more\");\r\n        }\r\n        // Create a pointer to the opposite OrderType of the Market Order\r\n        Order[] storage orders = orderBook[_symbol][(_orderType == OrderType.SELL ? OrderType.BUY : OrderType.SELL)];\r\n\r\n        // Algorithm to fill Market Orders\r\n        uint remaining = _amount;\r\n        uint i = 0;\r\n        while(i < orders.length -1 && remaining > 0) {\r\n            uint available = orders[i].amount - orders[i].filled;\r\n            uint matched = (remaining > available ? available : remaining);\r\n            remaining = remaining.sub(matched);\r\n            orders[i].filled = orders[i].filled.add(matched);\r\n            emit Trade(nextTradeId, orders[i].orderId, orders[i].symbol, orders[i].orderType, msg.sender, orders[i].trader, matched, orders[i].price, (orders[i].price.mul(matched)), block.timestamp);\r\n\r\n            if(_orderType == OrderType.SELL) {\r\n                // For the user that created the Marker Order - userInitiator\r\n                tokenBalances[msg.sender][_symbol] = tokenBalances[msg.sender][_symbol].sub(matched);\r\n                tokenBalances[msg.sender][DAI] = tokenBalances[msg.sender][DAI].add(matched.mul(orders[i].price));\r\n                // For the user that created the Limit Order - userFill\r\n                tokenBalances[orders[i].trader][_symbol] = tokenBalances[orders[i].trader][_symbol].add(matched);\r\n                tokenBalances[orders[i].trader][DAI] = tokenBalances[orders[i].trader][DAI].sub(matched.mul(orders[i].price));\r\n            } else {    // If the Market Order is a BUY Order\r\n                // Validate that the Buyer (the userInitiation - the one who crates the Market Order) has enough DAI to pay for the requested amount of Tokens\r\n                require(tokenBalances[msg.sender][DAI] >= _amount.mul(orders[i].price), \"The user does not have enough DAI to buy the requested amount of tokens\");\r\n                // For the user that created the Marker Order - userInitiator\r\n                tokenBalances[msg.sender][_symbol] = tokenBalances[msg.sender][_symbol].add(matched);\r\n                tokenBalances[msg.sender][DAI] = tokenBalances[msg.sender][DAI].sub(matched.mul(orders[i].price));\r\n                // For the user that created the Limit Order - userFill\r\n                tokenBalances[orders[i].trader][_symbol] = tokenBalances[orders[i].trader][_symbol].sub(matched);\r\n                tokenBalances[msg.sender][DAI] = tokenBalances[msg.sender][DAI].add(matched.mul(orders[i].price));\r\n            }\r\n            nextTradeId = nextTradeId.add(1);\r\n            i = i.add(1);\r\n        }\r\n\r\n        // Algorithm to clean up the Order Book from any Order that is totally filled\r\n        i = 0;\r\n        while(i < orders.length - 1){\r\n            if(orders[i].amount == orders[i].filled) {\r\n                for(uint j = i; j < orders.length -1; j++) {\r\n                    orders[j] = orders[j + 1];\r\n                }\r\n                orders.pop();\r\n                continue;\r\n            }\r\n            i = i.add(1);\r\n        }\r\n    }\r\n\r\n    function getOrders(bytes32 _symbol, OrderType _orderType) external view returns(Order[] memory) {\r\n        return orderBook[_symbol][_orderType];\r\n    }\r\n\r\n    function getTokens() external view returns(Token[] memory) {\r\n        Token[] memory _tokens = new Token[](tokenList.length);\r\n        for(uint i = 0; i < tokenList.length; i++) {\r\n            // tokenList[i] gives access to the symbol = a bytes32 variable\r\n            _tokens[i] = Token(\r\n                tokens[tokenList[i]].symbol,\r\n                tokens[tokenList[i]].tokenAddress\r\n                );\r\n        }\r\n        return _tokens;\r\n    }\r\n    \r\n}",
  "sourcePath": "/mnt/c/pr0/blockchain-projects/DEX-for-ERC20-Tokens/contracts/DEX.sol",
  "compiler": {
    "name": "solc",
    "version": "0.8.11+commit.d7f03943.Emscripten.clang"
  },
  "schemaVersion": "3.4.4",
  "updatedAt": "2022-06-19T04:50:45.455Z",
  "devdoc": {
    "kind": "dev",
    "methods": {},
    "version": 1
  },
  "userdoc": {
    "kind": "user",
    "methods": {},
    "version": 1
  }
}